:020000040800F2
:100000007054012079020008BD160008CD130008C5
:10001000B9160008DB050008F91700080000000009
:10002000000000000000000000000000FD160008B5
:10003000BF06000800000000C1160008FF160008F7
:10004000930200089302000893020008930200083C
:10005000930200089302000893020008930200082C
:10006000930200089302000893020008930200081C
:10007000930200089302000893020008930200080C
:100080009302000893020008930200080000000099
:1000900000000000000000000000000093020008C3
:1000A00093020008930200089302000893020008DC
:1000B00093020008930200089302000893020008CC
:1000C00093020008930200089302000893020008BC
:1000D0009302000893020008930200080000000049
:1000E0009302000893020008930200080000000039
:1000F0000000000000000000000000009302000863
:100100000000000093020008930200089302000818
:1001100000000000000000000000000000000000DF
:10012000930200089302000893020008930200085B
:100130009302000800000000000000000000000022
:100140000000000000000000000000009302000812
:10015000930200089302000893020008930200082B
:100160009302000893020008000000000000000055
:10017000000000000000000000000000000000007F
:1001800000000000930200080000000000000000D2
:10019000930200089302000800F002F800F05CF8F7
:1001A0000AA090E8000C82448344AAF10107DA45D2
:1001B00001D100F051F8AFF2090EBAE80F0013F0C8
:1001C000010F18BFFB1A43F001031847142D030059
:1001D000342D03000A444FF0000C10F8013B13F0DB
:1001E000070408BF10F8014B1D1108BF10F8015B90
:1001F000641E05D010F8016B641E01F8016BF9D183
:1002000013F0080F1EBF10F8014BAD1C0C1B09D1D9
:100210006D1E58BF01F801CBFAD505E014F8016B4B
:1002200001F8016B6D1EF9D59142D6D370470000DD
:100230000023002400250026103A28BF78C1FBD8EF
:10024000520728BF30C148BF0B6070471FB52EF062
:10025000DEFA1FBD10B510BD00F085F91146FFF79D
:10026000F5FF27F0ABFF00F0A3F903B4FFF7F2FFAF
:1002700003BC00F0ABF9000009488047094800477B
:10028000FEE7FEE7FEE7FEE7FEE7FEE7FEE7FEE746
:10029000FEE7FEE704480549054A064B70470000A3
:1002A000B91700089901000870140120705401204A
:1002B000703401207034012053EA020C00F0698090
:1002C0002DE9F04B4FF00006002B1FBFB3FA83F56A
:1002D00003FA05F424FA05F65E4012BF1643B2FA9B
:1002E00082F502FA05F4C5F120051EBF22FA05FCCD
:1002F00044EA0C04203556EA044C4FEA144418BF73
:10030000641C4FF000084FF00009904271EB030CA1
:1003100039D3002919BFB1FA81F701FA07F6B0FA0B
:1003200080F700FA07F6C7F120071EBF20FA07FC86
:1003300046EA0C062037B6FBF4FCA7EB0507103F96
:1003400007F01F0BCBF120060CFA0BFB2CFA06F67C
:1003500044BFB3460026202FA4BF5E464FF0000BDB
:100360005BEA060C08BF4FF0010B19EB0B09ABFB66
:10037000027C48EB0608C01B06FB02CC0BFB03CC3F
:1003800071EB0C01C1E70B46024641464846BDE809
:10039000F08B13B54FF000004FF00001AFF3008079
:1003A000BDE81C40704740EA0103024630B59B0798
:1003B00010D14FF0013400E008C208C91D1B9D4355
:1003C00015EAC41FF8D013F0FF0102F8011B0DD08D
:1003D0001B0AF8E711F8013B002B02F8013B05D09E
:1003E00011F8013B002B02F8013BF3D130BD10B5F1
:1003F000431C02E010F8011B71B18107FAD14FF0E4
:10040000013202C88C1A8C4314EAC211F9D0C01A06
:100410000A0603D0C01E10BDC01A10BD0A0401D0C8
:10042000801E10BD0902FCD0401E10BD10B5203A40
:10043000C0F00B80B1E81850203AA0E81850B1E89D
:100440001850A0E81850BFF4F5AF5FEA027C24BF53
:10045000B1E81850A0E8185044BF18C918C0BDE84A
:1004600010405FEA827C24BF51F8043B40F8043B13
:1004700008BF7047D20728BF31F8023B48BF11F8C8
:10048000012B28BF20F8023B48BF00F8012B704722
:100490004FF0000200B5134694469646203922BF1D
:1004A000A0E80C50A0E80C50B1F12001BFF4F7AF68
:1004B000090728BFA0E80C5048BF0CC05DF804EB4A
:1004C000890028BF40F8042B08BF704748BF20F8B8
:1004D000022B11F0804F18BF00F8012B704700006D
:1004E0004FF0013C50F8042B51F8043B9A4221D1C3
:1004F000A2EB0C03934313EACC1317D150F8042B4F
:1005000051F8043B9A4215D1A2EB0C03934313EA32
:10051000CC130BD150F8042B51F8043B9A4209D16B
:10052000A2EB0C03934313EACC13DBD04FF0000093
:10053000704700BFD01A01BAB1FA81F101F0180179
:1005400022FA01F0CB40C1F12001DBB2C0B2C01AE7
:100550002CFA01F3D11A914311EAC311E6D1704785
:10056000704770477047754600F02CF8AE4605009E
:100570006946534620F00700854618B020B5FFF7BE
:1005800089FEBDE820404FF000064FF000074FF015
:1005900000084FF0000B21F00701AC46ACE8C009A1
:1005A000ACE8C009ACE8C009ACE8C0098D467047AA
:1005B00010B50446AFF300802046BDE81040FFF7B9
:1005C00054BE0000004870470C1401200149182057
:1005D000ABBEFEE726000200704700BFFEE700004A
:1005E0000146087810381823B0FBF3F20848805C05
:1005F000C865032A05D908686FF30900001D8865DE
:1006000003E008686FF309008865886D7047000093
:1006100018E80208014600208A6A8B69CBB932B11A
:10062000012A0DD0022A03D0032A10D10EE000BF08
:10063000CB6A03F08073B3F1807F00D1012007E023
:10064000CB6AB3F1C07F00D1012001E000E000BF20
:1006500034E08B69B3F5005F1AD132B1012A07D0BB
:10066000022A03D0032A11D10AE000BF01200EE0C4
:10067000CB6A03F08073B3F1807F00D1012006E0E4
:10068000CB6AB3F1C07F00D1012000E000BF15E0CC
:1006900032B1012A05D0022A04D0032A0CD103E08A
:1006A00000BF00BF012008E0CB6A03F08073B3F104
:1006B000807F00D1012000E000BF00BF704770477D
:1006C00072B600BFFEE700002DE9F04104460025A8
:1006D00000F05AF9074614B90120BDE8F081606ABC
:1006E00000B100BF022084F8350000BF002084F86C
:1006F000340000BF2068006820F001002168086015
:100700000AE000F041F9C01B052805D920206065EA
:10071000032084F83500E0E72068006800F001005D
:100720000028EED12068056821480540D4E9010180
:100730000843E16808432169084361690843A169E6
:100740000843E1690843216A08430543606A0428B5
:1007500003D1D4E90B0108430543206805602068F4
:10076000456925F00705606A0543606A04280DD1D4
:10077000A06A0543E06A48B12046FFF74BFF28B165
:1007800040206065012084F83500A6E720684561B7
:100790002046FFF725FF064694F85C103F2088406E
:1007A000B06000206065012084F83500002094E7E7
:1007B0003F8010F0F8B502460B46002500240020CB
:1007C0000021C7E0012606FA01F51E6806EA0504C5
:1007D000AC4274D11E7906F00306012E04D01E79B6
:1007E00006F00306022E13D190684F000326BE4088
:1007F000B0434F00DE68BE40304390605068012631
:100800008E40B0431E79C6F300168E4030435060D0
:100810001E7906F00306032E09D0D0684F00032688
:10082000BE40B0434F009E68BE403043D0601E794A
:1008300006F00306022E13D1CF0802F1200656F867
:1008400027004E07F70E0F26BE40B0434F07FF0E9E
:100850001E69BE403043CF0802F1200646F827004B
:1008600010684F000326BE40B0431E7906F0030611
:100870004F00BE40304310605E6806F44036002EE4
:1008800067D000BF00260096344E366846F4804696
:10089000324F3E603E46366806F48046009600BF02
:1008A00000BF2F4E8F0856F827008E07370F0F26F0
:1008B000BE40B0432B4EB24202D1002615E048E0C4
:1008C000294EB24201D101260FE0284EB24201D199
:1008D00002260AE0264EB24201D1032605E0254E4B
:1008E000B24201D1042600E007268F073F0FBE4029
:1008F00030431B4E8F0846F827001F4E3068A04338
:100900005E6806F4801606B120431B4E3060361D2B
:100910003068A0435E6806F4001606B12043164E08
:10092000361D3060144E361F3068A0435E6806F4F2
:10093000003606B12043104E361F3060361F306837
:10094000A0435E6806F4803606B120430A4E083E96
:100950003060491C1029FFF435AFF8BD443802401F
:100960000838014000000240000402400008024034
:10097000000C024000100240083C01400AB18161B5
:1009800001E00B0483617047014800687047000074
:100990000000002010B50D48006840F400700B49BD
:1009A00008600846006840F48060086008460068F7
:1009B00040F480700860032000F092F80F2000F0EF
:1009C00007F800F02BF8002010BD0000003C0240AA
:1009D00070B504460E4800784FF47A71B1FBF0F020
:1009E0000C490968B1FBF0F5284600F0D5FC08B1C8
:1009F000012070BD102C07D200222146501E00F0AD
:100A000031F80548046001E00120F2E70020F0E73A
:100A1000080000200C0000200400002008B500BFE2
:100A2000002000900E48006840F480400C490860A7
:100A30000846006800F48040009000BF00BF00BF7F
:100A400000200090081F006840F08050091F0860D7
:100A50000846006800F08050009000BF00BF08BD4D
:100A6000443802402DE9F05F80460D4616460027C7
:100A700000F0C4FE074639462A46334601F0070017
:100A8000C0F1070ABAF1040F02D94FF0040A01E0DD
:100A9000C0F1070AD14600F1040ABAF1070F02D2E9
:100AA0004FF0000A01E0A0F1030AD4464FF0010A1A
:100AB0000AFA09FAAAF1010A0AEA020A0AFA0CFA7F
:100AC0004FF0010B0BFA0CFBABF1010B0BEA030B24
:100AD0004AEA0B042146404600F098FEBDE8F09F2C
:100AE00000BF00F00702064B19684FF6FF031940DC
:100AF000044B0B4343EA0221014B196000BF7047CE
:100B00000CED00E00000FA0570B504460D460CB986
:100B1000012070BD5848006800F00700A84209D2C3
:100B200055490D700846006800F00700A84201D042
:100B30000120EEE7207800F0020002281DD1207885
:100B400000F00400042805D14C48006840F4E0504F
:100B50004A490860207800F00800082805D1474875
:100B6000006840F46040454908604448006820F04F
:100B7000F000A168084341490860207800F00100B6
:100B8000A8B36068012807D13C4808380068C0F362
:100B90004040B8B90120BCE76068022802D0606814
:100BA000032807D1354808380068C0F3406048B9C9
:100BB0000120AEE7314808380068C0F3400008B9AA
:100BC0000120A6E72D48006820F003006168084373
:100BD0002A490860FFF7D8FE064609E0FFF7D4FE71
:100BE000801B41F28831884202D9032091E707E057
:100BF0002248006800F00C006168B0EB810FEDD175
:100C00001D48006800F00700A84209D91A490D7074
:100C10000846006800F00700A84201D0012078E7EC
:100C2000207800F00400042807D11448006820F45C
:100C3000E050E168084311490860207800F008009E
:100C4000082808D10D48006820F46040216940EA76
:100C5000C1000A49086000F019F808490968C1F3A1
:100C60000311074A515CC8400649086006480068FD
:100C7000FFF7AEFE00204CE7003C0240083802407F
:100C800020E802080C000020040000202DE9F047B5
:100C9000002400250026A1462548006800F00C002D
:100CA00020B1042805D008283AD105E0DFF8849067
:100CB00039E0DFF8849036E01D48001F006800F03E
:100CC0003F041B48001F006800F4800078B11A48F8
:100CD0001749091F0968C1F38811A0FB017001467B
:100CE000224600233846FFF7E7FA05460EE0114892
:100CF0000F49091F0968C1F38811A0FB0170014663
:100D0000224600233846FFF7D7FA05460848001F59
:100D10000068C0F30140401C4600B5FBF6F902E054
:100D2000DFF8109000BF00BF4846BDE8F087000024
:100D3000083802400024F40040787D01F8B50446EC
:100D40000CB90120F8BD207800F00100002874D013
:100D5000F948006800F00C0004280DD0F64800683F
:100D600000F00C00082813D1F348001F006800F4BD
:100D70008000B0F5800F0BD1EF4808380068C0F351
:100D80004040002859D06068002856D10120D9E79A
:100D900000BF6068B0F5803F08D1E74808380068B8
:100DA00040F48030E449083908601EE06068B0F51E
:100DB000A02F0DD1E0480838006840F48020DE49BB
:100DC000083908600846006840F4803008600CE08C
:100DD000D9480838006820F48030D74908390860BD
:100DE0000846006820F48020086000BF606890B169
:100DF000FFF7CAFD054606E0FFF7C6FD401B642865
:100E000001D903209EE7CC4808380068C0F3404071
:100E10000028F1D011E0FFF7B7FD054606E0FFF727
:100E2000B3FD401B642801D903208BE7C248083872
:100E30000068C0F340400028F1D1207800F00200A3
:100E400002285FD1BC48006800F00C0058B1BA48D5
:100E5000006800F00C0008281CD1B748001F00688B
:100E600000F48000B0B9B44808380068C0F340000E
:100E700020B1E068012801D0012063E7AE480838BE
:100E8000006820F0F800216940EAC100AA49083949
:100E9000086037E0E06800B30120A8490860FFF768
:100EA00073FD054606E0FFF76FFD401B022801D9E0
:100EB000032047E7A04808380068C0F34000002836
:100EC000F1D09D480838006820F0F800216940EA18
:100ED000C10099490839086014E00020974908606A
:100EE000FFF752FD054606E0FFF74EFD401B0228C6
:100EF00001D9032026E7904808380068C0F3400075
:100F00000028F1D1207800F0080008282CD1606971
:100F1000A8B101208A490860FFF736FD054606E0C2
:100F2000FFF732FD401B022801D903200AE782485F
:100F30006C300068C0F340000028F1D014E00020BD
:100F40007F490860FFF720FD054606E0FFF71CFD1E
:100F5000401B022801D90320F4E677486C30006872
:100F6000C0F340000028F1D1207800F004000428EC
:100F700070D1002770483830006800F0805090B978
:100F800000BF002000906C483830006840F080506E
:100F90006949383108600846006800F080500090C8
:100FA00000BF00BF01276748006800F48070B0B937
:100FB0006448006840F4807062490860FFF7E4FC10
:100FC000054606E0FFF7E0FC401B022801D903209C
:100FD000B8E65C48006800F480700028F2D000BFDA
:100FE000A068012808D154486830006840F001002A
:100FF0005149683108601DE0A06805280DD14E48B0
:101000006830006840F004004B49683108600846C9
:10101000006840F0010008600CE047486830006854
:1010200020F001004449683108600846006820F05B
:101030000400086000BFA068A8B1FFF7A5FC054642
:1010400009E0FFF7A1FC401B41F28831884202D938
:10105000032077E626E0384868300068C0F3400097
:101060000028EED013E0FFF78FFC054608E0FFF7FD
:101070008BFC401B41F28831884201D9032061E694
:101080002D4868300068C0F340000028EFD1012FE0
:1010900007D129483830006820F08050264938317F
:1010A000086000BFA069002845D02348006800F010
:1010B0000C0008285DD0A069022845D100201F49F6
:1010C0000866FFF761FC054606E0FFF75DFC401B84
:1010D000022801D9032035E6174808380068C0F314
:1010E00040600028F1D1D4E907010843616A40EA71
:1010F00081110122A06AC2EB500041EA00412C207C
:10110000005D41EA00600C49091F086001200B499D
:101110000866FFF739FC054606E0FFF735FC401B83
:10112000022801D903200DE6034808380068C0F3FF
:1011300040600028F1D049E00838024000004742F2
:10114000800E474200700040002021490866FFF7EA
:101150001BFC054606E0FFF717FC401B022801D9DF
:101160000320EFE51B480068C0F340600028F2D17F
:101170002CE0A069012800D1E4E51648001D0668AE
:10118000A069012820D006F48001E06981421BD1CA
:1011900006F03F01206A814216D147F6C070304008
:1011A000616AB0EB811F0FD106F440310122A06AC1
:1011B000C2EB5000B1EB004F06D106F070612C205D
:1011C000005DB1EB006F01D00120BBE50020B9E567
:1011D000000047420038024010B504460CB9012017
:1011E00010BD606A38B96068B0F5827F00D105E053
:1011F0000021E16102E00021216161610021A16221
:1012000094F8510028B9002084F85000204600F0DE
:1012100047F8022084F851002068006820F0400060
:1012200021680860A08800F48270218901F40441DB
:101230000843A18901F400610843217C01F0020107
:101240000843217D01F001010843218B01F4007165
:101250000843217F01F0380108432021095D01F096
:1012600080010843218D01F4005108432168086082
:101270000421A06901EA104094F8241001F0100143
:101280000843216848602068C06920F40060216834
:10129000C86100206065012084F8510000209FE7AC
:1012A00010B586B00446142101A8FFF7F1F82B49C8
:1012B0002068884250D100BF002000902848006874
:1012C00040F48050264908600846006800F48050C9
:1012D000009000BF00BF00BF0020009020481438DD
:1012E000006840F001001E49143908600846006893
:1012F00000F00100009000BF00BFE020019002203C
:10130000029000200390032004900520059001A97D
:101310001448FFF74FFA1448144908604FF0C060B2
:1013200048604021114881600021C1604FF4806114
:101330000161002141618161C1614FF4803101622D
:1013400000214162FFF7C0F908B1FFF7B9F900BF0A
:101350000648A064846300BF06B010BD00300140A1
:1013600044380240000002408864024078020020B5
:10137000042808D14FF0E021096941F004014FF041
:10138000E022116107E04FF0E021096921F004013A
:101390004FF0E0221161704770B504462546681E83
:1013A000B0F1807F01D301200FE0681E4FF0E021F3
:1013B00048610F214FF0FF3000F028FA00204FF075
:1013C000E021886107200861002070BD00BFFEE7B2
:1013D0002DE9F04104460D4616461F462A2000F02E
:1013E000A1F8A11C88B200F07FF8B11C88B200F00F
:1013F0007BF82B2000F096F8691C88B200F074F896
:10140000791C88B200F070F82C2000F08BF8BDE851
:10141000F08170B504460D4616462B4622462946F5
:101420002046FFF7D5FF304600F05EF870BD0000A3
:101430002DE9F04704460D4616461F46DDF820808C
:10144000301B1FFA80F9781B1FFA80FA781E83B2CE
:10145000701E82B229462046FFF7BAFFC4EB49004E
:101460001E490860012202211D48FFF787FA204625
:1014700009E04FEA28211B4A11541346411C03F886
:101480000180811C88B24FEA49018142F1DC284683
:1014900018E01249091F096841F001010F4A121FA3
:1014A00011600BE00D498839096801F4006129B128
:1014B0004FF40061094A803A116000E0F2E700BF92
:1014C000411C88B25045E4DB0448001F006820F04E
:1014D00001000249091F0860BDE8F0878C640240E2
:1014E00000040240D802002010B504460122022167
:1014F0000448FFF743FA201200F022F8E0B200F0AF
:101500001FF810BD0004024010B50446012202215C
:101510000348FFF733FA204600F012F810BD000030
:101520000004024010B50446002202210348FFF7E0
:1015300025FA204600F004F810BD00000004024027
:1015400010B5044650222146014800F0BBF810BDFA
:101550000030014008B500BF002000900648006838
:1015600040F48000044908600846006800F48000E8
:10157000009000BF00BF08BD3038024000B587B002
:10158000142102A8FEF784FF00BF00200190364816
:10159000006840F00400344908600846006800F024
:1015A0000400019000BF00BF00BF0020019008466A
:1015B000006840F0800008600846006800F0800085
:1015C000019000BF00BF00BF0020019008460068E6
:1015D00040F0010008600846006800F0010001903A
:1015E00000BF00BF00BF002001900846006840F027
:1015F000020008600846006800F00200019000BF89
:1016000000BF00224FF400511848FFF7B7F901223C
:1016100040F207411648FFF7B1F94FF4005002902D
:101620000120039000200490059002A90F48FFF7C5
:10163000C1F840F205400290012003900020049080
:10164000059002A90A48FFF7B5F802200290012090
:101650000390002004900220059002A90448FFF79F
:10166000A9F807B000BD0000303802400008024071
:101670000004024010B50E480E4908604FF4827015
:10168000486000210B488160C16002210161012195
:101690004161490281610021C1610162416281624F
:1016A0000A21C162FFF798FD08B1FFF709F810BDE4
:1016B000003001402002002000BFFEE700BFFEE72F
:1016C0007047000070B504464FF47A73002003E0C1
:1016D000401C984200D905E0074DAD6805F00205B1
:1016E000002DF5D000BF044DE96000BF151EA2F12A
:1016F0000106B2B2FAD170BD00300140704710B59A
:10170000012025F0DDFE10BD00B593B0302107A803
:10171000FEF7BEFE142102A8FEF7BAFE00BF0020AD
:1017200001902348006840F0805021490860084635
:10173000006800F08050019000BF00BF00BF002093
:1017400001901C48006840F440401A49086008466F
:10175000006800F44040019000BF00BF01200790E6
:101760000004089002200D9041050E910C210F916C
:1017700060211091022111910421129107A8FFF715
:10178000DDFA08B1FEF79CFF0F20029002200390C3
:10179000002004904FF48050059000200690032113
:1017A00002A8FFF7B1F908B1FEF78AFF13B000BD38
:1017B00040380240007000400348006840F4700068
:1017C000014908607047000088ED00E010B5642012
:1017D00002F0D8FF02F0CCFF1AF0E2FB22F0D6FCB8
:1017E0004FF4FA6000F03BF818F006FC10BD10B59D
:1017F00000BF25F03BFF10BD00BFFEE702480068B8
:10180000C0F30220704700000CED00E010B5002886
:1018100004DB0A07130E054A135406E00A07140EE8
:10182000034A00F00F031B1FD45410BD00E400E076
:1018300018ED00E070B50446002508E02168481C5A
:1018400020600878303805EB850100EB4105216800
:10185000087800F035F80028F0D1284670BD11B5A1
:10186000002404E04FF47A7000F006F8641CBDF820
:1018700000008442F6D318BD71B500224FF0E02578
:101880006C690E4E009D366805FB06F34FF0E025AF
:10189000A96910E04FF0E025A86988420BD0884282
:1018A00002D20D1A2A4402E0251A0D442A440146A8
:1018B0009A4200D300E0EDE700BF78BD10000020A1
:1018C0000146302903DB392901DC01207047002063
:1018D000FCE7000010B54421074800F017FE002285
:1018E0000A21064825F054FE0549086002F0E0F997
:1018F00000200449087010BD08040020913D000834
:101900006C000020680000202DE9F04F87B00746EA
:101910000C4615462946204600F066F920B94FF0DE
:10192000FF3007B0BDE8F08F00222946204600F0C6
:10193000FDF808B10020F4E70026204611F088FCED
:10194000401E00B20490204611F008FC401E00B278
:10195000039068886188401A0FFA80FABAF1000F84
:1019600016DD2088ADF814006088ADF81600A08858
:10197000ADF818006088504400B2ADF81A00304647
:10198000711C4EB207EBC0000599016006994160D9
:10199000E8886188411A0398401A0FFA80FBBBF16E
:1019A000000F1CDDB5F90600B4F90610884216DAFE
:1019B0002088ADF81400E888ADF81600A088ADF8CE
:1019C0001800E888584400B2ADF81A003046711C7F
:1019D0004EB207EBC0000599016006994160B5F968
:1019E0000200B4F90210884202DDB5F9020001E0FC
:1019F000B4F902008046B5F90600B4F90610884231
:101A000002DAB5F9060001E0B4F906000290029886
:101A1000A0EB08000FFA80F928882188401A00B24C
:101A20000190019800281BDDB9F1000F18DD208816
:101A3000ADF81400ADF8168021880198084400B272
:101A4000ADF8180008EB090000B2ADF81A003046F6
:101A5000711C4EB207EBC000059901600699416008
:101A6000A8882188411A0498401A00B20090009872
:101A7000002818DDA888ADF81400ADF81680A988F4
:101A80000098084400B2ADF8180008EB090000B255
:101A9000ADF81A003046711C4EB207EBC000059934
:101AA00001600699416030463BE730B50346B1F925
:101AB0000040B2F90050AC4202DDB1F9004001E053
:101AC000B2F900401C80B1F90240B2F90250AC42B8
:101AD00002DDB1F9024001E0B2F902405C80B1F9E7
:101AE0000440B2F90450AC4202DAB1F9044001E01A
:101AF000B2F904409C80B1F90640B2F90650AC42FC
:101B000002DAB1F9064001E0B2F90640DC800120BA
:101B1000B3F90040B3F90450AC4205DCB3F902401C
:101B2000B3F90650AC4200DD002030BDF8B50446E4
:101B30000D4616460027B4F90000B5F9001088429A
:101B400012DBB4F90200B5F9021088420CDBB4F9DB
:101B50000400B5F90410884206DCB4F90600B5F9B2
:101B60000610884200DC01270FB90020F8BD0EB92D
:101B70000120FBE72088ADF800006088ADF8020086
:101B800032466946284600F0A7F808B90020EDE77C
:101B9000A088ADF800006088ADF8020032466946C2
:101BA000284600F099F808B90020DFE72088ADF852
:101BB0000000E088ADF8020032466946284600F091
:101BC0008BF808B90020D1E7A088ADF80000E088C4
:101BD000ADF8020032466946284600F07DF808B9A3
:101BE0000020C3E70120C1E70246B2F90000B1F9C5
:101BF0000430984213DCB2F90400B1F90030984285
:101C00000DDBB2F90200B1F90630984207DCB2F9F7
:101C10000600B1F90230984201DB01207047002034
:101C2000FCE7F8B504460D461646B4F90400B5F9CC
:101C30000010884211DBB4F90600B5F902108842A1
:101C40000BDBB4F90000B5F90410884205DCB4F9E7
:101C50000200B5F90610884201DD0120F8BD0EB979
:101C60000020FBE72088ADF800006088ADF8020096
:101C700032466946284600F02FF808B10020EDE70B
:101C8000A088ADF800006088ADF8020032466946D1
:101C9000284600F021F808B10020DFE72088ADF8E1
:101CA0000000E088ADF8020032466946284600F0A0
:101CB00013F808B10020D1E7A088ADF80000E08853
:101CC000ADF8020032466946284600F005F808B132
:101CD0000020C3E70120C1E72DE9FC5F05460E4661
:101CE00014464FF0000AB6F90000B5F9001088421A
:101CF00013DBB6F90000B5F9041088420DDCB6F923
:101D00000200B5F90210884207DBB6F90200B5F906
:101D10000610884201DC4FF0010ABAF1000F02D12F
:101D20000020BDE8FC9F002C01DC0120F9E72846DB
:101D300011F08EFA834600EBDB704710284611F055
:101D40000DFA834600EBDB704FEA6008474501DA85
:101D5000384600E0404681464C4500DD4C46288828
:101D6000ADF800002888204400B2ADF8040068886F
:101D7000ADF802006888204400B2ADF806000022E9
:101D800031466846FFF7A8FF80B1BDF80400204443
:101D900000B2ADF80400BDF80600204400B2ADF872
:101DA00006003146684622F0C9F9BAE7E888001B08
:101DB00000B2ADF80200E888ADF806000022314616
:101DC0006846FFF789FF80B1BDF80400204400B2E7
:101DD000ADF80400BDF80200001B00B2ADF802002F
:101DE0003146684622F0AAF99BE7A888001B00B29A
:101DF000ADF80000A888ADF804000022314668461E
:101E0000FFF76AFF80B1BDF80000001B00B2ADF81B
:101E10000000BDF80200001B00B2ADF80200314620
:101E2000684622F08BF97CE76888ADF80200688884
:101E3000204400B2ADF80600002231466846FFF7A4
:101E40004BFF80B1BDF80000001B00B2ADF80000F0
:101E5000BDF80600204400B2ADF8060031466846E1
:101E600022F06CF95DE701205BE710B5B1F90030B5
:101E7000B2F90040A34202DAB1F9003001E0B2F950
:101E800000300380B1F90230B2F90240A34202DA15
:101E9000B1F9023001E0B2F902304380B1F9043007
:101EA000B2F90440A34202DDB1F9043001E0B2F915
:101EB00004308380B1F90630B2F90640A34202DD56
:101EC000B1F9063001E0B2F90630C38010BD000060
:101ED000F8B5054625F0E4FA07460020009035B134
:101EE0004C49E8680860284625F06AFC03E014F0D5
:101EF000ABF84849086047490968086921F0B2FF12
:101F000044480068406920B142490968486921F0A5
:101F1000A9FF40490968C86921F0A4FF3D49096843
:101F2000086A21F09FFF3B480068006938B900202B
:101F300038490968A1F8500100BF00BFF8BD22F080
:101F4000ADF927F019FF27F051FB32480068B0F8CF
:101F50005001002856D02F4800680068007C00F02F
:101F6000010040B32B4800680068C068406810B3A7
:101F7000002419E02748006800F59870005D00B162
:101F800010E02448006800F5AC7000F021FB064624
:101F900020480068303000EBC400016831604068C0
:101FA000706000BF601C84B21A480068B0F850012D
:101FB000A042DFDC00BF4FF480711648006830306B
:101FC0001CF074F820211348006800F598701CF08C
:101FD0006DF800200F490968A1F85001384625F036
:101FE00051FA00900B4800680068406A50B10949F6
:101FF000096808680749096809684B6A06490A6858
:10200000009998471BF0CAFD00F03EF800F006F872
:1020100000BF93E7400000203C00002010B50024E2
:1020200016E0C4EBC4000C4951F8200030B1C4EBF9
:10203000C401094A52F821001BF062FEC4EBC4013E
:10204000054A02EB81001C211CF030F8601CC4B270
:10205000042CE6DB10BD0000E40400200146094A20
:1020600010680BE042688A4202D002688A4204D1BA
:10207000027E22F00102521C027640690028F1D152
:1020800070470000140000207047000010B50421C4
:10209000014800F03BFA10BDFC03002010B52021E0
:1020A000014800F033FA10BD140400202DE9FF4769
:1020B00004460D4616461F46DDE90C896FB9B8F592
:1020C000807F0AD1002020806080681E00B2A0803E
:1020D000701E00B2E080BDE8FF87002000900190F4
:1020E00002900390ADF80450ADF80A60ADF80C50C2
:1020F000ADF80E604B4642463946684621F054FF23
:102100004B464246394601A821F04EFF4B46424617
:10211000394602A821F048FF4B464246394603A8FB
:1021200021F042FFBDF90000BDF90410884202DA37
:10213000BDF9000001E0BDF90400BDF90810BDF9CA
:102140000C20914202DABDF9081001E0BDF90C1033
:1021500088420BDABDF90000BDF90410884202DAAA
:10216000BDF900000DE0BDF904000AE0BDF908006A
:10217000BDF90C10884202DABDF9080001E0BDF992
:102180000C00801E00B22080BDF90000BDF90410D3
:10219000884202DDBDF9000001E0BDF90400BDF98F
:1021A0000810BDF90C20914202DDBDF9081001E0D4
:1021B000BDF90C1088420BDDBDF90000BDF904101B
:1021C000884202DDBDF900000DE0BDF904000AE01F
:1021D000BDF90800BDF90C10884202DDBDF9080008
:1021E00001E0BDF90C00801C00B2A080BDF9021016
:1021F000BDF90600814202DABDF9020001E0BDF935
:102200000600BDF90A20BDF90E108A4202DABDF9B6
:102210000A1001E0BDF90E1088420BDABDF9021078
:10222000BDF90600814202DABDF902000DE0BDF9F8
:1022300006000AE0BDF90A10BDF90E00814202DA7B
:10224000BDF90A0001E0BDF90E00801E00B26080F9
:10225000BDF90210BDF90600814202DDBDF90200A0
:1022600001E0BDF90600BDF90A20BDF90E108A4251
:1022700002DDBDF90A1001E0BDF90E1088420BDD48
:10228000BDF90210BDF90600814202DDBDF9020070
:102290000DE0BDF906000AE0BDF90A10BDF90E0017
:1022A000814202DDBDF90A0001E0BDF90E00801C8B
:1022B00000B2E08000BF0EE72DE9F7430546164661
:1022C0000024134C25F0ECF880463346294620467E
:1022D000019A19F063FA07465FB900BF00BF2C21CD
:1022E00020461BF0E3FE4FF00040A0620020BDE856
:1022F000FE830020A062E06918B9404625F0C2F8CC
:10230000E061E06908B90120E0612046EFE70000E4
:102310003804002010B51421114800F0F7F819F026
:10232000EFF9044600BF1CB900BF00BF00BFFEE7C5
:1023300000BF14B900BF00BF10BD0A49204619F004
:10234000C7FA0949204619F0C5FA0849204619F08C
:10235000C3FA0749204619F0B9FA00BFECE70000BC
:1023600020040020B1AE010885B301080DB60108B4
:1023700079AE01082DE9FF4104460F4614B913F068
:1023800063FE04460CB9BDE8FF81204613F0F5FE5C
:1023900000B9F8E794F82800C0F3800010B100BF3E
:1023A00000BFF0E71FB90020A4F85001EBE70020C0
:1023B000ADF80800ADF80A00204613F05DFE401E9F
:1023C00000B2ADF80C00204613F0BCFE401E00B277
:1023D000ADF80E0002AA39466846FFF766FB0646CE
:1023E00006B9D0E72068007CC0F3400060B10298D5
:1023F0002063039860630120A4F85001606810B165
:10240000606825F0E9F9BEE72068806918B12068A6
:1024100069468269904700250BE004F1300000EB2B
:10242000C50100226846FFF781FB00B1ABE7681CDD
:1024300085B2B4F85001A842EFDCB4F8500120286E
:1024400009DAB4F8502104F1300101EBC200694609
:1024500010F015FE0BE00020A4F85001B4F8502154
:1024600004F1300101EBC20002A910F008FEB4F83B
:102470005001401CA4F85001606810B1606825F05C
:10248000ABF900BF7FE770B50546284600F013F8AA
:10249000044600260CE02146284600F024F80646B3
:1024A0002146284600F0C0F820461BF029FC34469F
:1024B000002CF0D170BD014609B900207047486872
:1024C000FCE770B5064600243046FFF7F4FF0546EA
:1024D00005E0641C2946304600F005F80546002D4D
:1024E000F7D1204670BD02460B461068001D03441C
:1024F0001868704702460B46106803441868704716
:10250000014609B9002070478868FCE70022426054
:102510008260CA1C22F003010160704770B5044656
:10252000216801F108001BF00DFB0546A5B1002252
:102530002946204626F024FB29462046626826F0DC
:1025400011FB606820B12A462046616826F018FB1E
:102550006560A06800B9A560284670BD2DE9F0410E
:1025600006460D4606B115B90020BDE8F08130469B
:10257000FFF7A1FFA84206D13046FFF7CFFF044680
:1025800024BB0020F1E7316801F108001BF0DAFA02
:1025900004460CB90020E8E729463046FFF7AAFFB9
:1025A000074622463946304626F0DCFA3A462146AE
:1025B000304626F0E5FA22462946304626F0E0FA73
:1025C0002A462146304626F0CDFA00BF2046CCE709
:1025D00070B50446216801F108001BF0B3FA054606
:1025E000A5B100222946204626F0BCFA29462046FD
:1025F000A26826F0C5FAA06820B12A462046A16844
:1026000026F0B0FAA560606800B96560284670BD24
:10261000014609B901207047486818B9886808B9A7
:102620000120F8E70020F6E72DE9F04104460D46C9
:102630000CB9BDE8F0812046FFF73DFFA8420FD15D
:1026400029462046FFF74FFF6060606810B9002000
:10265000A0602FE000222046616826F091FA29E070
:102660002046FFF74DFFA8420FD129462046FFF72D
:1026700041FFA060A06810B9002060601AE000224D
:102680002046A16826F06EFA14E029462046FFF79E
:1026900031FF064629462046FFF725FF07463A4602
:1026A0003146204626F05EFA32463946204626F06C
:1026B00067FA00BF00BFBCE710B504462068806819
:1026C00018B120682146826890472068006828B1C8
:1026D0002068006820602046FFF7EEFF10BD01462D
:1026E000886818B18868B0F9160070470020FCE7C8
:1026F0000146886818B18868807E8009704700208C
:10270000FCE72DE9F04104460D4616461DB916B901
:102710000120BDE8F08120461CF0DCFBA068008AA7
:10272000284400B2A1680882A068408A304401B2FF
:10273000A068418201233246294620461FF0FEFE52
:1027400000220B21204617F009FC0746012F01D07B
:102750003846DEE720461FF01AFE0120D9E7F7B51C
:1027600082B004460E4614B9049805B0F0BD00BF0F
:102770006222314620461EF021FF0190019D00BFDC
:10278000BDB12868A8B100BF6322314620461EF0C3
:1027900015FF01900198C0B207464FB13A462B6829
:1027A0002846049998470190BDF80400ADF8100040
:1027B00000BF0498D9E700002DE9F04F95B004461A
:1027C0008B4691469A461E9D608C20F0080008308A
:1027D0006084A4F820902A89594620461EF0EEFE17
:1027E0001490A4F820A02A89594620461EF0E6FE3F
:1027F0001390608C20F008006084DDE9131088429B
:102800000CD1DDE91310884208D1BDF85000BDF8A5
:102810004C10884202D115B0BDE8F08FA4F820908A
:102820002A89594620461EF0C9FE1490A4F820A01B
:10283000594620460EF0E4F812902989129A106841
:10284000149A23F0EBFA28890B2833D147F6FF714D
:102850001498884202D0139888422BD120461FF04A
:10286000A8F9009000EBD070471020461DF096FBB1
:10287000009000EBD0704FEA600847F6FF711498A3
:10288000884208D1781C08F10101884200DA01E091
:1028900008F10100149047F6FF711398884208D19F
:1028A000781C08F10101884200DA01E008F101001A
:1028B000139000BF2348FFF731FE064600BF1EB944
:1028C00000BF00BF00BFFEE700BF06B9A3E7149832
:1028D000F0601398306134602889B080C6F808B081
:1028E00001A80FF091FC314601A80FF03FFD1649F9
:1028F00001A80FF00CFD1548039000BF144901A872
:102900000FF013FDFF22002101A80FF01FFD298801
:1029100001A80FF011FD698801A80FF0F3FCE86829
:10292000089000BF01A8002190F8422061F3000246
:1029300080F8422000BF2869079001A80FF02EFD03
:1029400000BF68E72C0400204DDE0208F5E0020815
:1029500025E0020810B514210148FFF7D7FD10BD8E
:102960002C0400202DE9FE4F04460F4690464FF000
:10297000000900254CE1E06800EBC5004068C0F3A9
:10298000406000B143E1E16801EBC501496821F015
:102990007F4021F02DFA064626EA070008B90120FB
:1029A00000E00020029026EA080008B9012000E0BB
:1029B00000200190DDE90101814270D0E06850F80B
:1029C00035A04FF0000B6A461021504622F0FEFD64
:1029D00010B14FF0010B98E06A461121504622F0E9
:1029E000F5FD10B14FF0010B8FE06A461221504601
:1029F00022F0ECFD10B14FF0010B86E06A46132186
:102A0000504622F0E3FD10B14FF0010B7DE06A4625
:102A10001521504622F0DAFD10B14FF0010B74E0A1
:102A20006A461421504622F0D1FD10B14FF0010B3F
:102A30006BE06A460A21504622F0C8FD10B14FF003
:102A4000010B62E06A466B21504622F0BFFD10B1D7
:102A50004FF0010B59E06A466C21504622F0B6FD5A
:102A600010B14FF0010B50E06A460121504622F0B0
:102A7000ADFD10B14FF0010B47E06A46042150460E
:102A800022F0A4FD10B14FF0010B3EE06A46022196
:102A9000504622F09BFD18B14FF0010B35E0B5E038
:102AA0006A460321504622F091FD10B14FF0010B10
:102AB0002BE06A460521504622F088FD10B14FF008
:102AC000010B22E06A460621504622F07FFD10B13C
:102AD0004FF0010B19E06A463221504622F076FD94
:102AE00010B14FF0010B10E06A466E21504622F003
:102AF0006DFD10B14FF0010B07E06A466D215046A5
:102B000022F064FD08B14FF0010BBBF1000F02D0C1
:102B10000320BDE8FE8F6A466921504622F056FD2B
:102B200010B14FF0020970E06A466A21504622F067
:102B30004DFD10B14FF0020967E06A466E21504624
:102B400022F044FD10B14FF002095EE06A466D21AB
:102B5000504622F03BFD10B14FF0020955E06A46A5
:102B60003721504622F032FD10B14FF002094CE0FF
:102B70006A463821504622F029FD10B14FF0020973
:102B800043E06A463521504622F020FD10B14FF057
:102B900002093AE06A464021504622F017FD10B182
:102BA0004FF0020931E06A464521504622F00EFD01
:102BB00010B14FF0020928E06A464121504622F048
:102BC00005FD10B14FF002091FE06A464221504650
:102BD00022F0FCFC10B14FF0020916E06A464321D6
:102BE000504622F0F3FC10B14FF002090DE06A46A6
:102BF0004921504622F0EAFC10B14FF0020904E0EE
:102C0000B9F1000F01D14FF0010900BF00BF6D1CE9
:102C1000608CC0F30510A8423FF6ADAE484678E799
:102C200001480068704700004000002070470146DE
:102C3000C1F30412072A00DD0722D0B2704700005A
:102C400001464FF6FF70814201D11F20704709B93C
:102C50000020FBE7712902DA0948405CF6E7A1F1A0
:102C6000710081B20748006838B1074800688142A6
:102C700003D204480068405CE8E70020E6E7000073
:102C8000D41F030890000020A400002010B51821D4
:102C90000348FFF73BFC012024F0B6FC10BD000008
:102CA000D80300202DE9F04105460F4616460DB920
:102CB000BDE8F0812846FDF79AFB80463946284654
:102CC0000A4A126890470746E8193146074A1268CF
:102CD000904706463C4603E0A019285C2855641C32
:102CE000A8EB0600A042F7D200BFE1E7D400002025
:102CF0002DE9F04106460C4617461D46294630464A
:102D0000084A126890472060206830B12968881905
:102D10000021044A1268904700E000203860BDE8B6
:102D2000F0810000CC0000202DE9F04F87B0044670
:102D30000F4692469846DDE910560DB100202880D6
:102D40001CB9002007B0BDE8F08F207808B900203A
:102D5000F8E70FB90020F5E74FF0000906F0020090
:102D600010B906F0040098B1002000E0401C215C7E
:102D70000A2905D0215C0D2902D0215C0029F5D15A
:102D8000215C01B1401C15B14FF0FF312980D9E71A
:102D900006F0020008B141F6FF7800200690059089
:102DA00038E000200490059808B9012000E00020D8
:102DB00006A904AACDE90062CDE9021005996018C0
:102DC00043465246394624F087FE83460498A8EBD2
:102DD00000000FFA80F8049848440FFA80F9BBF11C
:102DE000000F00D11CE005985844059020780A286F
:102DF00002D020780D2800D112E00598205C0A2826
:102E000003D00598205C0D2803D10598401C05903F
:102E100006E000BF0598205C10B1B8F1000FC0DCDF
:102E200000BF059870B905A92046094A1268904765
:102E3000834635B100225946384617F07FFA0FFA1B
:102E400080F900BF0DB1A5F8009005987AE7000061
:102E5000CC0000202DE9F04706468846174606B10B
:102E60000FB9BDE8F0873046FDF7C1FA8146384614
:102E7000FDF7BDFA044604B9F3E704EB090A41463D
:102E800030460B4A126890478046554603E0281B9F
:102E9000305C70556D1E08EB0400A842F7D906EBB4
:102EA0000800224639461BF0BBF800BFD9E70000F6
:102EB000D4000020024600200FA31B788B4211D1C2
:102EC00013781BB90123137001200BE01378012B39
:102ED00002D10023137005E01378022B02D10023E6
:102EE000137001201378012B04D1202901D1022372
:102EF00013700120704700002300000073B582B0FA
:102F0000064603980190324600210846019B25F0B1
:102F100003F90546002001900024681C1AF012FEF7
:102F2000044600BF1CB900BF00BF00BFFEE700BFE2
:102F300014B9002004B070BD002060553246691CF1
:102F40002046039B25F0E8F82046F3E72DE9F047FB
:102F500081460E4614461F46DDF820A035461BE08C
:102F6000600800FB075529464846D047B0F10008E5
:102F700009DD04F0010080F00100C0EB5404E81901
:102F80000546064608E0B8F1000F02DA6408354647
:102F900002E02846BDE8F087002CE1D10020F9E7E7
:102FA0002DE9FF4F85B08346DDE9158ADDE9134938
:102FB000DDE91775129E05F00200F8B94FB105F072
:102FC000010030B1B9F1000F02D105F00C0000B1E1
:102FD0007F1E03E030222046641C3254544501D247
:102FE000202CF7D303E030222046641C325405F035
:102FF000010018B1BC4201D2202CF4D305F010001E
:10300000B0B305F4806050B94CB1544501D0BC4216
:1030100005D1641E1CB1B8F1100F00D1641EB8F1C7
:10302000100F09D105F0200030B9202C04D27822ED
:103030002046641C325415E0B8F1100F09D105F098
:10304000200030B1202C04D258222046641C325477
:1030500008E0B8F1020F05D1202C03D262222046ED
:10306000641C3254202C03D230222046641C32547B
:10307000202C16D2B9F1000F04D02D222046641C5A
:1030800032540EE005F0040020B12B222046641CCF
:10309000325406E005F0080018B120222046641CD6
:1030A0003254CDE90275CDE90064584606A90EC92F
:1030B00000F0A2F809B0BDE8F08F2DE9FF4F8FB006
:1030C0008046DDE91FABDDE91D96219D1C9C002794
:1030D0000CB925F0100505F4806000B1E4B100BF23
:1030E000B4FBF6F106FB1141C8B20A2802DA00F17E
:1030F000300107E005F0200109B1412100E0612124
:1031000001440A39CBB239467F1C07AA5354B4FB99
:10311000F6F40CB1202FE3D307A8CDE904AB8DE87A
:10312000810203960695404610A90EC9FFF738FFA5
:1031300013B0BDE8F08F2DE9FF4F8FB0DDE9217BA3
:10314000DDF89080209EDDE91C454FF0000900214C
:1031500084EA01006940084301D128F0100808F40E
:10316000806028B1002184EA0100694008432DD025
:1031700000BF32463B4620462946FDF79DF802F047
:10318000FF0ABAF10A0F02DA0AF1300007E008F08C
:10319000200008B1412000E0612050440A38C2B24A
:1031A000484609F1010907A90A5432463B46204620
:1031B0002946FDF781F804460D46002184EA010006
:1031C0006940084302D0B9F1200FD2D32398CDE94A
:1031D000036BCDE9050807A91E98CDE900190290F7
:1031E0000FA80FC8FFF7DCFE13B0BDE8F08F9A42BE
:1031F00000D28854704770472DE9FF5F054614469A
:10320000DDE90EA6DDE91087A34607F0020078B9D4
:1032100007F0010060B9B14607E02246641C202097
:10322000039B0199A84709F10109C145F5D300BFE6
:1032300008E02246641C711E0E461AF80100039B2A
:103240000199A847002EF4D107F0020050B105E023
:103250002246641C2020039B0199A847A4EB0B0085
:103260004045F5D3204604B0BDE8F09F2DE9FF4F5F
:103270008BB0074600250C9800B9FA4FEAE20E9889
:10328000007825280AD02A466D1C0E990878DDE9B9
:103290000C13B8470E98401C0E90DBE20E98401CB1
:1032A0000E90002400BF0E9800782B2819D004DC63
:1032B00020281ED023282CD123E02D2809D0302807
:1032C00027D144F001040E98401C0E9001200A9072
:1032D00022E044F002040E98401C0E9001200A9057
:1032E0001AE044F004040E98401C0E9001200A904D
:1032F00012E044F008040E98401C0E9001200A9041
:103300000AE044F010040E98401C0E9001200A9030
:1033100002E000200A9000BF00BF0A980028C2D136
:1033200080460E990878FEF7CBFA20B10EA8FEF77A
:1033300081FA804612E00E9800782A280ED118995A
:1033400001C91891002804DA44F00204C0F1000811
:1033500000E080460E99491C0E9100BF4FF0000915
:103360000E9800782E281FD144F480640E98401CDB
:103370000E900E990878FEF7A3FA20B10EA8FEF77A
:1033800059FA814610E00E9800782A280CD1189935
:1033900001C91891002801DD014600E0002189469D
:1033A0000E99491C0E9100BF0E9800786C280AD027
:1033B00004DC682816D06A2835D128E0742820D08B
:1033C0007A2830D129E044F480740E98401C0E9085
:1033D0000E9800786C2804D144F400740E98401CB8
:1033E0000E9021E044F080040E98401C0E900E9840
:1033F0000078682804D144F040040E98401C0E90D8
:1034000012E044F480740E98401C0E900CE044F4DA
:1034100000740E98401C0E9006E044F480740E98E0
:10342000401C0E9000E000BF00BF0E980078692895
:103430001DD00EDC622821D006DC25287ED0502845
:103440001AD058287BD115E0632879D06428F9D1A7
:103450000CE0732875D004DC6F280ED07028F1D1F1
:1034600009E0752804D07828ECD102E000BF00BF45
:1034700000BF00BF00BF00BF00BF00BF0E980078B4
:10348000782803D00E980078582801D1102623E020
:103490000E980078702803D00E98007850280CD130
:1034A000102644F0100444F480740E984078562896
:1034B00012D10E98401C0E900EE00E9800786F28E6
:1034C00001D1082608E00E980078622801D1022672
:1034D00002E00A2624F010040E980078582803D041
:1034E0000E980078502801D144F020040E980078FE
:1034F000692805D00E980078642801D024F00C04C7
:1035000004F4806008B124F001040E980078692862
:1035100003D00E98007864287CD104F40070B8B30E
:103520001898C01D20F007001890D0E900AB189A39
:10353000083218920020CDE9069803E073E17CE19F
:10354000F2E01CE1CDE904600894BAEB00017BEBEA
:10355000000001DA012000E000200021029008466E
:10356000B1EB0A0170EB0B0002DA5046594605E058
:1035700000200146B0EB0A0061EB0B01CDE9000130
:103580002A463846DDE90C13FFF7D5FD0546C7E0AE
:10359000FFE704F48070D0B1189850F804AB18908D
:1035A0004FEADA70CDE9039802960594BAF1000F5C
:1035B00001DD514601E0CAF10001CDE900102A46C3
:1035C0003846DDE90C13FFF778FD0546A8E004F066
:1035D000400028B1189810F8041B1890C8B20DE0EC
:1035E00004F0800028B1189830F8041B189008B235
:1035F00004E0189800681899091D189182464FEA4E
:10360000DA70CDE9039802960594BAF1000F02DD55
:10361000514602E00BE0CAF10001CDE900102A4654
:103620003846DDE90C13FFF748FD054678E00E98B3
:103630000078562818D1189850F804AB1890DAF88A
:1036400004000068099009980090DAF800300D989D
:10365000421B0C9841193846FFF708FE054400202C
:1036600009905DE0F731000804F40070D0B11898BB
:10367000C01D20F00700CDE906980894189000209E
:10368000CDE904600290189903C9189A083218927B
:10369000CDE900012A463846DDE90C13FFF74BFD62
:1036A00005463DE004F4807098B10022CDE903980E
:1036B00002960594189800681899091DCDE9000232
:1036C00018912A463846DDE90C13FFF7F6FC05464B
:1036D00026E004F0400028B1189810F8041B189058
:1036E000C8B20DE004F0800028B1189830F8041B2F
:1036F000189088B204E0189800681899091D18916C
:1037000082460020CDE900A0CDE9039802960594F9
:103710002A463846DDE90C13FFF7CFFC054600BF0B
:103720000E98401C0E9093E0012604F0020050B960
:1037300005E02A466D1C2020DDE90C13B847304611
:10374000761C4045F5D3189911F8043BD8B22A46A7
:103750006D1C1891DDE90C13B84704F0020050B15C
:1037600005E02A466D1C2020DDE90C13B8473046E1
:10377000761C4045F5D30E98401C0E9068E01898D2
:1037800050F804AB18905046B9F1000F01D04946EB
:1037900001E04FF0FF310A46014600E0491C0B787A
:1037A0001BB1131EA2F10102F8D10E1A04F48060BD
:1037B00028B14E4501D2304600E04846064604F0A6
:1037C000020050B905E02A466D1C2020DDE90C13EB
:1037D000B8473046761C4045F5D306E01AF8010B91
:1037E0002A466D1CDDE90C13B8479AF8000040B179
:1037F00004F480600028F1D0B9F10000A9F10109BA
:10380000ECD104F0020050B105E02A466D1C2020E6
:10381000DDE90C13B8473046761C4045F5D30E98C9
:10382000401C0E9014E02A466D1C2520DDE90C1387
:10383000B8470E98401C0E900AE02A466D1C0E995F
:103840000878DDE90C13B8470E98401C0E9000BFB5
:1038500000BF00BF0E98007800287FF410AD0D98CF
:10386000854201D2284601E00D98401E0246002004
:10387000DDE90C13B84728460FB0BDE8F08F2DE9FD
:10388000F04104460E46002774B13146204600F050
:103890002DF80546B5F5803F05D20C2D01D92846F7
:1038A00000E00C20074600BF3846BDE8F081024624
:1038B00000BF481E084018B100BF00BF00BFFEE7B0
:1038C00000BF481E1040101A704710B502464B1E2C
:1038D00013444C1E23EA040000BF4B1E0B401BB1D7
:1038E00000BF00BF00BFFEE700BF10BD024600BF23
:1038F000481E084018B100BF00BF00BFFEE700BF70
:10390000481E10444B1E9843704700002DE9F041BB
:1039100080460E46444601206086002500270DE0C3
:1039200056F8270025A1FCF7DBFD10B1681C85B215
:1039300002E0608E401C6086781C87B256F8270033
:1039400020B156F8270000780028E9D1208EA8423F
:1039500001D1BDE8F081A06A20B1A06A1AF0D0F9C7
:103960000020A062E06A20B1E06A1AF0C9F90020E4
:10397000E062E8001AF0E6F8A06200BFA06A18B999
:1039800000BF00BF00BFFEE700BF68001AF0DAF812
:10399000E06200BFE06A18B900BF00BF00BFFEE7E9
:1039A00000BFA06A08B1E06A00B900256900E06ABA
:1039B0001AF07CFB258600BFCBE700000A00000060
:1039C0002DE9F84F81460E46924699F8090000F01D
:1039D0000700022801D1304600E050468346564594
:1039E00001DD304600E050460746032000EB47006B
:1039F00020F0030000F110053948006839490968D2
:103A0000A0EB0108002405EB08003749096888424B
:103A100006D233480468606820F0004060603AE0F5
:103A200031480068854221D813E04FF0FF30009004
:103A3000002269462D480DF039FF002269462C48C6
:103A40000DF034FF2648006826490968A0EB0108FC
:103A500000BF08EB0500244909688842E5D82048E2
:103A60000468606820F00040606014E028461AF0A6
:103A700069F8044600BF1CB900BF00BF00BFFEE7E5
:103A800000BF14B90020BDE8F88F606820F0004046
:103A900000F10040606032465946484602F0E8F8BE
:103AA0002060606800F04040401C6060606820F06A
:103AB00080406060A781A4F80EB06068C00F20B19C
:103AC000204600F11001A16008E0054800681030B0
:103AD000A060034800682844014908602046D2E7F6
:103AE0000C0200208C0000200802002037EF0008A4
:103AF0002D190108F0B585B006460D463446002064
:103B000004900390029065480088A84202D0FF20EC
:103B1000634908706148058094F83C0000F0030098
:103B200020B1012838D0022866D000BF94F83C00AC
:103B300000F003005A49097888421BD02620005D16
:103B400000EB001000EB4000142190FBF1F0554910
:103B500008702720005D00EB001000EB40001421EE
:103B600090FBF1F05049087094F83C0000F003001D
:103B70004B49087002A803A9CDE9001005EB4501E7
:103B80004FF6FF7202EA410004AB47490A78454903
:103B900009780AF0A0FE5FE094F83C0000F0030012
:103BA0003F49097888421AD0A08C00EB40004002BF
:103BB0004FF4B471B0FBF1F03C4908802720005D60
:103BC00000EB001000EB4000142190FBF1F03649AF
:103BD000087094F83C0000F003003149087002A816
:103BE00003A9CDE90010E9B204AB2F4802782F48B1
:103BF00000880AF070FE2FE094F83C0000F003000B
:103C00002749097888421AD0A08C00EB4000400276
:103C10004FF4B471B0FBF1F0244908802620005D18
:103C200000EB001000EB4000142190FBF1F01D4967
:103C3000087094F83C0000F003001949087002A8CD
:103C400003A9EAB204ABCDE9001016480178174881
:103C500000880AF040FE00BF00BF9DF810009DF8EC
:103C60000C109DF80820D708BDF8003067F3040356
:103C70008F080093BDF8003067F34A13C70800931C
:103C8000BDF8003067F3CF230093BDF800703B46CA
:103C90000193BDF80410084605B0F0BDA001002056
:103CA0009E0100209C0100209D0100209A0100201F
:103CB00010B50120074908700748FEF7FCFB20B942
:103CC0000648006823F07CFD03E00448006823F008
:103CD00083FD10BD68000020080400206C00002057
:103CE00010B5044694F84200C0F3400070B9B4F82F
:103CF000400000280ADDB4F840004FF6FF7188420A
:103D000004D0B4F84000401EA4F84000B4F84000CD
:103D1000D0B9A06B20B194F84200C0F3400098B134
:103D200021461A48FEF780FCFFF7C2FFE06810B199
:103D30002046E1688847206910B1204621698847FC
:103D4000204619F0DDFF1FE0E06B40422063A06BCE
:103D5000D0B194F84210C1F3400111B9616B4942EE
:103D6000216394F842104908C94394F8422061F352
:103D7000410284F84220206AA16A2162A062E06ABE
:103D8000A16BE162A06300BF10BD00000804002029
:103D90002DE9F04180464248006823F073FB064657
:103DA0004048007880F001003E4908703E48FEF728
:103DB00082FB04466BE000203C49087094F8420006
:103DC000C0F3800037490978884253D035480178DC
:103DD0003034A07C61F38200A07420688719A07C35
:103DE000303CC0F3C00010BB206B00281FDC002F4C
:103DF0001DDB94F8420000F0010060B9606950B129
:103E00002046616988470546206A28442062A06AE6
:103E10002844A06200BFA06810B12046A16888476E
:103E200094F8420020F00800083084F84200206B2B
:103E300030442063206B00281BDBD4E90B10884240
:103E400001DDE06A20632046E16988470546606A33
:103E5000A84206D06562606818B12946D4E900021C
:103E60009047D4E90B10884202DB2046FFF738FF69
:103E700000BF00BF0D48007820B10B48FEF71BFBC8
:103E8000044604E021460848FEF72DFB0446002CBA
:103E900091D123F005FB02490860BDE8F0810000E4
:103EA0006400002069000020080400206800002051
:103EB00070B504460D46606818B129466068FFF782
:103EC000F7FF206818B1294620462268904770BD48
:103ED00070B505460C46A1B228460EF0FDFF70BD38
:103EE00070B505460C46A1B228460FF046F870BDE5
:103EF0002DE9FF4F8FB01F46DDF888801C980E908B
:103F00001D980D9000200B902398042806D00528BA
:103F100009D006280CD014281AD114E000200C90E7
:103F20004FF0020917E001200C904FF0030912E056
:103F300001200C904FF00209FEF772FE054628683A
:103F4000008F0B9007E001200C904FF0020902E077
:103F500013B0BDE8F08F00BF002489E11E986043D4
:103F60000E9901EB20201C901F9860430D9901EBE6
:103F700020201D901C9805121D980612002D07DBAD
:103F80001098854204DA002E02DB1198864203DB8A
:103F9000002008F8040069E11C98C0B20A901D983E
:103FA00000F0FF0A0A98802807DA4FF0FF3B0A98D2
:103FB000C0F17F0040000A9005E04FF0010B0A9825
:103FC000803840000A90BAF1800F07DA4FF0FF30D6
:103FD0000990CAF17F004FEA400A05E001200990EC
:103FE000AAF180004FEA400A0F98089006FB07F0FC
:103FF00000FB09F005FB090108980844089005EB4F
:104000000B0000287EDB05EB0B011098401E81425F
:1040100078DC099830440028F4DB099831181198AD
:10402000401E8142F4DC0898079008980BFB0900B9
:104030000690099800FB07F1089801FB090005901C
:104040000C9800287FD0239B052B06D1079B9878DE
:10405000059B9978069B9A783BE0239B142B18D1FB
:10406000DDF844C007FB0CFCDDF83CE00EEB4C0334
:1040700006FB073C1CF8050006FB073CAC441CF89B
:104080000B20DDF824C0B4440CFB073C1CF80510E1
:104090001FE0239B062B19D1079B1B88BDF82CC062
:1040A00063450BD0059B1B88BDF82CC0634505D02C
:1040B000069B1B88BDF82CC0634503D1002308F87C
:1040C0000430D3E0FF20FF21FF2202E0FF20FF2188
:1040D000FF22814207D001FB0AF3CAF5807C00FB76
:1040E0000C33C3F30721824209D00A9B5343DDF806
:1040F00028C0CCF5807C00FB0C33C3F307228B185F
:104100005B1000E059E008F8043018F8043003B9F7
:10411000ACE0079B93F800C05B780CEB03239BB2E9
:104120000493059B93F800C05B780CEB03239BB2D0
:104130000393069B93F800C05B780CEB03239BB2C0
:1041400002930CE0FFE70798008804900698008827
:104150000290059800880390FF2008F80400BDF83D
:104160001000BDF80C1088420CD1BDF81000BDF84D
:104170000810884206D1219800EB4400BDF81010C9
:10418000018019E00AF0FF02DDE9030111F048FAAD
:1041900003900A98C2B20499029811F041FA029071
:1041A0007F22DDE9020111F03BFA0190219800EB3A
:1041B0004400BDF80410018057E008990A78497856
:1041C00002EB01218AB2219921F8142023990529B3
:1041D00004D0062905D0142919D10EE00899887851
:1041E00017E0219931F81410BDF82C20914201D12B
:1041F000002100E0FF2108460BE0119A07FB02F1C5
:104200000F9A02EB410106FB0711485D01E0FF2018
:1042100000BF00BF15B9BBF1000F06DB1099491EA6
:10422000A9420BD1BBF1000F08DD0A99C1F1FF01D2
:104230004143C1F3072108F8041015E016B90999A4
:10424000002906DB1199491EB1420AD109990029BA
:1042500007DDCAF1FF014143C1F3072108F804104B
:1042600002E0002108F8041000BF00BF601C04B287
:1042700020988442FFF672AE00BF69E62DE9F84F40
:1042800004468C4690469946109FDDE90A56AA4698
:104290000096002032E00C9941430AEB21250D994C
:1042A0004143DDF800B00BEB21262A123312002A1D
:1042B00005DB624503DA002B01DB434502DB00210D
:1042C000395419E0214603FB09FB0BEB4B0B02EBC6
:1042D000420EF344594491F800B091F801E00BEB21
:1042E0000E2B1FFA8BFEDDF83CB02BF810E091F896
:1042F00002B007F800B000BF411C08B20E99884216
:10430000C9DBBDE8F88F000030B591B00446254602
:10431000A88F18B9204624F0E5FD1EE068460DF090
:1043200073FF294668460EF025F80D4968460DF0E2
:10433000F2FFA98F68460EF003F8012200216846BB
:104340000EF00CF8074968460DF0EBFF06480390A5
:1043500000BF68460EF022F800BF11B030BD00006B
:104360006D8F0208F32201086F8F020870B50446B2
:104370000D4600BF204600F03BF818B100BF00BF5B
:1043800000BFFEE700BF284600F050F9001D61683D
:1043900008446060204600F03AF8204670BD70B5D1
:1043A00005460C46284600F041F904F11001884208
:1043B00001D3012070BD0020FCE70146A1F10800F7
:1043C00070477CB505460C46204600F02FF906469E
:1043D0006A4601A924F0F4F921462846DDE90032B5
:1043E0000CF0C0FD7CBD0146087900F0010070476B
:1043F00010B50446204600F019F908B9012010BD97
:104400000020FCE70146087900F00200704770B513
:104410000446204600F097F805462C60284670BDFB
:104420007CB506460C4600200190009000256CB13A
:104430006A4601A9204624F0E0F901980A2805DA25
:104440006A4601A9304626F025FA054685B100BF27
:10445000284600F0EBF8A04203D200BF00BF00BF27
:10446000FEE700BF29463046DDE9003225F030FE88
:1044700028467CBD70B504462046FFF7C8FF0546B8
:10448000284600F0BEF8204600F0B6F870BD70B5C2
:104490000446204600F057F80546284600F0B6F8D6
:1044A000204600F0BEF870BD70B506460D462846A1
:1044B00000F049F8044600BF1CB900BF00BF00BFB0
:1044C000FEE700BF2046FFF78EFF90B100BF2846F1
:1044D000FFF78EFF18B100BF00BF00BFFEE700BFAF
:1044E0002146304600F076F821462846FFF73EFF89
:1044F0000546284670BD70B506460D462846FFF7AE
:1045000081FFF0B1284600F057F8044600BF1CB9FF
:1045100000BF00BF00BFFEE700BF00BF2046FFF79F
:1045200062FF18B900BF00BF00BFFEE700BF214611
:10453000304600F04FF829462046FFF717FF0546A2
:1045400000BF284670BD2DE9F0410446204600F02A
:104550006DF8061F204600F0B8F80746314624F0F3
:10456000C9FB054600BF2046FFF742FF18B100BF58
:1045700000BF00BFFEE700BF2846BDE8F0812DE97F
:10458000F04106460C461546002794B100BF1DB900
:1045900000BF00BF00BFFEE700BF2A4621463046ED
:1045A00000F097F82046FFF772FF204600F08DF8E4
:1045B00007463846BDE8F08110B5044600BF2046E6
:1045C000FFF720FF18B900BF00BF00BFFEE700BF24
:1045D000206810BD7CB505460C46204600F026F844
:1045E00006466A4601A924F0EBF821462846DDE993
:1045F000003225F06DFD7CBD416841F00101416054
:104600007047416841F0020141607047416821F004
:10461000020141607047426802F003030B434360AC
:104620007047416821F001014160704701464868C8
:1046300020F0030070472DE9F04706460C4630464F
:1046400000F043F88046211F24F054FB0746304613
:10465000FFF7ECFF211D451A00BF384600F035F882
:104660008146384600F031F880460421FFF72DF9E5
:10467000814503D000BF00BF00BFFEE700BF00BF01
:104680003046FFF7D3FF2919091D884203D000BF28
:1046900000BF00BFFEE700BF29463846FFF7BBFF5B
:1046A00000BF3846FFF7C2FF0C2803D200BF00BF8F
:1046B00000BFFEE700BF21463046FFF7ACFF38469B
:1046C000FFF7D8FE3846BDE8F087014601F1080043
:1046D00070472DE9F04106460C46154600BF2046BE
:1046E000FFF781FE18B900BF00BF00BFFEE700BFA3
:1046F00029462046FFF753FE78B129462046FFF7AA
:104700009AFF07462046FFF782FE3846FFF779FFFB
:1047100039463046FFF755FE00BFBDE8F0812DE970
:10472000F04106460C46154600BF2046FFF75BFEEB
:1047300018B100BF00BF00BFFEE700BF29462046FA
:10474000FFF72DFE88B129462046FFF774FF074684
:104750003846FFF75BFF39463046FFF7A5FE0746B0
:1047600039463046FFF72DFE00BFBDE8F08100005E
:1047700010B500224FF400510148FCF7FFF810BDBE
:104780000008024010B504460420FCF7F1FD014882
:10479000046010BD100000202DE9F84306463446A1
:1047A00017F0F6FA8046404617F037FB78BB3046E4
:1047B00015F0E3F838B3304614F05BFF208FE18E3C
:1047C000884212D0E08E2087E08E00906A461C213D
:1047D000304615F0C3FB0746012F02D03846BDE82E
:1047E000F88330461DF0D3FD00BF404617F025FB8F
:1047F0000546042D06D130461BF0C6FB07460021B6
:1048000016F076FA09E0304615F01AF905E0FFE7F0
:10481000208FE08630461DF0BAFD0120DFE72DE94C
:10482000F0410446204615F093FB054628461BF050
:1048300005FC064628460FF02DFC074600223946A7
:10484000304622F015F8BDE8F0810146C1F30020A2
:1048500070470146C1F3C01070470146C1F3002004
:1048600070470146C1F3402070470146C1F3001074
:1048700070470146C1F3801070470146C1F38020A4
:1048800070470146C1F3C02070470146C1F3401094
:10489000704700002DE9F04F89B004460D46002115
:1048A00020461BF064FA30B91C21284619F0FEFBA3
:1048B00009B0BDE8F08F2946204600F00BFB2946E1
:1048C000204600F07DF8002120461CF07FFC089077
:1048D000002120461CF0BEFD0790002120461CF060
:1048E00040FA012800D100E0002081460021204646
:1048F0001DF026F80746002120461CF001FB064665
:1049000042F2D170874205D1608CC0F3C02008B953
:10491000012000E00020824620461BF0C8FA0690E5
:1049200000BF4FF0000824480288414620461CF092
:1049300045FE03900398C0B200BF8346AA68296968
:104940002868CDE90209CDE900125A465146089B74
:1049500006980CF0E1F8288342F2D170864205D126
:10496000608CC0F3802008B9012000E00020059091
:1049700020461BF07DFA049000BF4FF000080F485E
:104980000288414620461CF019FE03900398C0B2ED
:1049900000BF83460023EA6869686869CDE90213AD
:1049A000CDE900025A46079BDDE904010CF0B4F89A
:1049B000688300BF7CE7000004010020080100209C
:1049C0002DE9F34F87B00C4607980BF0F5F88046B9
:1049D00007981BF06CFA0690404601F0DFFA206160
:1049E0002169480019F0F8F820602169480019F0A1
:1049F000F3F8A060002548E05848029038F9150007
:104A000041F69A7188423FD10020019029E0019936
:104A100007981BF0ACF90090514900981DF031F94E
:104A200000B11BE000980BF0E5F88246BAF1010FE7
:104A300000D013E000980BF0CDF88346AB4500D0D2
:104A40000CE000981DF0B5F80299884201DA02984E
:104A500002E000981DF0ADF8029000BF0198401CE4
:104A6000019007981BF0A1F901998842CFD80298CC
:104A7000002804DB0298A16821F8150003E000215A
:104A8000A06820F8151000BF6D1C2069A842B3D89B
:104A90000026B14600251BE038F9150041F69B7150
:104AA000884202DB411A0E4411E041F69A718842B5
:104AB00006D1A16831F8151049440FFA81F906E0D2
:104AC000A16821F8150009EB00010FFA81F96D1CAE
:104AD0002069A842E0D8002107981CF077FB0590D8
:104AE0002169491EDDE9050200FB112000B2069094
:104AF0000698A0EB090007B2002F00DA00274FF05C
:104B0000FF30049000200390002513E038F91500D1
:104B100041F69B7188420CDB421A11B207FB01F28D
:104B2000B2FBF6F212B2A36823F8152004950391A4
:104B300000BF6D1C2069A842E8D8049800280ADB51
:104B40000398301A7843B0FBF6F0381A01B2A26825
:104B5000049822F8101009B0BDE8F08F01E0FFFFC3
:104B6000010006002DE9FC5F05460022114628469B
:104B70001EF084FD002128461CF04FF981460021DB
:104B800028461CF07FFC484407B2002128461CF050
:104B900081FA48440FFA80FA28461CF043F838445A
:104BA00050440FFA80FB3B4E28461BF0FEF8019064
:104BB0004FF000085CE0A868006850F828403649CB
:104BC00020461DF05EF800B150E020461DF056FC76
:104BD000002839D1002120461CF055F8009000989B
:104BE00030B1012807D0022804D0032815D100E0F5
:104BF00000BF00BF00BFB4F91A10B5F91600081ABB
:104C0000401CB04201DA304605E0B4F91A10B5F99B
:104C10001600081A401C06B214E0002120461CF0C1
:104C2000BFFE70B904F114000EF083FA3844B042AC
:104C300001DA304604E004F114000EF07AFA384448
:104C400006B200BF00BF10E0B4F91A10B5F91600A3
:104C5000081A401CB04201DA304605E0B4F91A10D7
:104C6000B5F91600081A401C06B200BF08F1010889
:104C7000019880459FD30748864209D006EB0A0079
:104C800006B25E4502DD3046BDE8FC9F5846FBE7B4
:104C90005846F9E701E0FFFF010004002DE9FC5F41
:104CA00005460022114628461EF0CCFC002128466D
:104CB0001CF0B3F88246002128461CF03BFB504410
:104CC0000FFA80F8002128461CF0A4FA50440FFA8D
:104CD00080F928461BF0B6FF4844404400B20190DA
:104CE000724C28461BF061F88346002128461CF0D0
:104CF00008F8012866D100265BE0A868006850F833
:104D000026706B4938461CF0BCFF00B150E03846B5
:104D10001DF0B4FB002839D1002138461BF0B3FF49
:104D20000090009830B1032805D0062804D0082848
:104D300015D102E000BF00BF00BFB5F91800B7F9F8
:104D40001410401A401CA04201DA204605E0B5F9D3
:104D50001800B7F91410401A401C04B214E00021E6
:104D600038461CF011FE70B907F114000EF04DFA30
:104D70004044A04201DA204604E007F114000EF09E
:104D800044FA404404B200BF00BF10E0B5F9180077
:104D9000B7F91410401A401CA04201DA204605E081
:104DA000B5F91800B7F91410401A401C04B200BF3E
:104DB000761C5E45A1D33D48844269D004EB0900CE
:104DC00004B265E000265BE0A868006850F8267031
:104DD000374938461CF055FF00B150E038461DF009
:104DE0004DFB80BB002138461BF04DFF0090009822
:104DF00030B1012805D0042804D0072815D102E0DD
:104E000000BF00BF00BFB7F91800B5F91410401A71
:104E1000401CA04201DA204605E0B7F91800B5F9B8
:104E20001410401A401C04B215E0002138461CF052
:104E3000B7FD78B907F114000EF0E7F94844A04235
:104E400002DA204605E008E007F114000EF0DDF973
:104E5000484404B200BF00BF10E0B7F91800B5F92C
:104E60001410401A401CA04201DA204605E0B7F9B0
:104E70001800B5F91410401A401C04B200BF761C8B
:104E80005E45A1D30948844202D004EB080004B275
:104E90000648844202D10198BDE8FC9F01988442F3
:104EA00001DD2046F8E70198F6E7000001E0FFFF8A
:104EB0000100040010B50446206818F009FF60687E
:104EC00018F006FFA06818F003FFE06818F000FF74
:104ED00010BD00002DE9F34F87B00C4607980BF08A
:104EE00031FC8046404601F059F860616169480034
:104EF00018F072FE60606169480018F06DFEE060B5
:104F0000002547E05948029038F9150041F69A719A
:104F100088423ED14FF0000A29E0514607981AF026
:104F200026FF0190524901981CF0ABFE00B11CE035
:104F300001980BF0C9FC8346BBF1010F00D014E0CF
:104F400001980BF0B1FC00900098A84200D00CE052
:104F500001981BF023F80299884201DA029802E0D6
:104F600001981BF01BF8029000BF0AF1010A079894
:104F70001AF01BFF5045D0D80298002804DB029895
:104F8000E16821F8150003E00020E16821F8150030
:104F900000BF6D1C6069A842B4D80026B146002548
:104FA0001BE038F9150041F69B71884202DB411A7B
:104FB0000E4411E041F69A71884206D1E16831F859
:104FC000151049440FFA81F906E0E16821F815004F
:104FD00009EB00010FFA81F96D1C6069A842E0D865
:104FE000002107981CF036FA069007981AF040FF47
:104FF00001466269521E069800FB121000B205902D
:105000000598A0EB090007B2002F00DA00274FF047
:10501000FF30049000200390002513E038F91500BC
:1050200041F69B7188420CDB421A11B207FB01F278
:10503000B2FBF6F212B2E36823F81520049503914F
:1050400000BF6D1C6069A842E8D8049800280ADBFC
:105050000398301A7843B0FBF6F0381A01B2E268D0
:10506000049822F8101009B0BDE8F08F01E0FFFFAE
:105070000100060038B5044600256E222946204668
:105080001CF09CFA0090009800B208B1022038BDD4
:1050900000256D22294620461CF090FA00900098C9
:1050A00000B2B0F5807F01D00220F0E70025612238
:1050B000294620461CF082FA00900098C0B2FF28D2
:1050C00001D00120E3E700256822294620461CF094
:1050D00075FA00900098C0B208B10120D7E700200F
:1050E000D5E77CB504460D46164628882189084434
:1050F00000B2ADF8000068886189084400B2ADF8DC
:105100000200A8882189084400B2ADF80400E888AC
:105110006189084400B2ADF806003246694620466F
:10512000636998477CBD0000F8B505460E462C46DD
:10513000A06B58B1284621F08DFF07461149096838
:105140008847A16B884201D30020F8BD606B10B185
:10515000606B007808B90120F7E7002000900AE0B2
:105160006946094A606B126890470746B74201D109
:105170000120EAE700BF606B0099405C0028EFD196
:1051800000BFE2E7DC000020CC0000202DE9FF4F4B
:105190008FB00F46209DF87800F0010008B1F94863
:1051A00000E0F9480E90F87800F0010008B1F748E7
:1051B00000E0F7480D90F87800F0010008B9F348D6
:1051C00000E0F3480C9001200B90BEE000210B9111
:1051D00000206988B5F804C0A1EB0C010AB20026D2
:1051E0001AE006EB860CE96801EB8C01097C01F002
:1051F000010141B906EB860CE96801EB8C01898954
:10520000014408B207E006EB860CE96801EB8C016B
:105210000989511A0AB2761C2969B142E1D80026DF
:105220008EE006EB860CE96801EB8C01097C01F04D
:10523000010100297DD100BF18B900BF00BF00BF28
:10524000FEE700BF92FBF0F80FFA88F306EB860941
:10525000D5F80C8008EB8908B8F80C8008FB03F837
:105260000FFA88F106EB8609D5F80C8008EB89085F
:10527000B8F9049006EB860AD5F80C8008EB8A088A
:10528000B8F90680884501DD884607E006EB860A06
:10529000D5F80C8008EB8A08B8F90680C14508DD0E
:1052A00006EB8609D5F80C8008EB8908B8F904806C
:1052B00013E006EB8609D5F80C8008EB8908B8F9ED
:1052C0000680884501DD884607E006EB8609D5F8AB
:1052D0000C8008EB8908B8F90680C4468C450BD0D1
:1052E0004FF0010806EB860AD5F80C9009EB8A0905
:1052F000C9F81080CDF82C8006EB8609D5F80C8013
:1053000008EB8908A8F808C006EB8609D5F80C80D8
:1053100008EB8908B8F80C80A0EB08080FFA88F0B1
:1053200006EB8609D5F80C8008EB8908B8F80880E8
:1053300000E004E0A2EB08080FFA88F200BF761C38
:105340002969B1423FF66DAF00BF0B9800287FF48A
:105350003DAF00210F981BF010FD012800D100E0A7
:1053600000200A9000200990089008A809A9CDE91A
:10537000001029890BB2B5F9022038781E9923F064
:10538000BCFCF87800F0010048B10A9838B10F98D9
:105390001AF08DFDBDF82410084400B2099011994F
:1053A0000F981AF0E4FC04468FE17A4920461CF07D
:1053B00068FC40B1F878C0F3800111AA0F980AF098
:1053C000F2FF044681E1002120461BF07DFD07909D
:1053D0000798002860D000200390002610E006EB1C
:1053E0008601E86850F82100A04208D106EB86004B
:1053F000E96801EB8000B0F90800039003E0761C37
:105400002869B042EBD800BFF87800F0010050B135
:10541000608C20F4006000F500606084608C20F4F3
:105420008060608409E0608C20F4806000F580601A
:105430006084608C20F40060608404F114000D9995
:1054400088470399884226D020461CF0A0FF00BF61
:10545000A08AADF80400E08AADF80600208BADF814
:105460000800608BADF80A0000BF04F114000E9A2A
:105470000399904701AA2921204614F06FFD204688
:105480001AF0DCFD22462221009014F067FD204630
:105490001CF07DFF00BF07E0608C20F4006060849A
:1054A000608C20F480606084002006907878012869
:1054B00012D0022819D104F114000C998847B5F9CB
:1054C0000010491C21F00101081A039000EBD07074
:1054D000401000B2069009E004F114000C998847CE
:1054E0002988081A00B2069000E000BF00BFF878D3
:1054F00000F0010050B10A9840B104F114000D9978
:105500008847BDF82410081A00B2099000200390C3
:105510006B22204603991CF051F8029002980FFA72
:1055200080F800BF002003906C22204603991CF0F5
:1055300045F8029002980FFA80F900BF20461CF04F
:1055400038FB059020461AF029FD049008F4C0406D
:10555000B0F5005F01D1012000E0002030B128F457
:10556000C040B0F5FA6F01DC012000E00020E0B19E
:1055700028F4C040B0F57A7F0EDD28F4C040C0F5B5
:105580007A700BE0573301084B330108973201085A
:10559000A33101080100060028F4C04005994843E2
:1055A000642190FBF1F00FFA80F809F4C040B0F5E7
:1055B000005F01D1012000E0002030B129F4C0409B
:1055C000B0F5FA6F01DC012000E0002090B129F471
:1055D000C040B0F57A7F04DD29F4C040C0F57A7090
:1055E00001E029F4C04004994843642190FBF1F0A4
:1055F0000FFA80F9A18A1C98401A40440FFA80FAE9
:10560000E18A1D98401A48440FFA80FBF87800F0B0
:10561000010010B1BDF9240000E0069850440FFAD3
:1056200080FAF87800F0010008B1069801E0BDF9B1
:10563000240058440FFA80FBBAF1000F02D1BBF1ED
:10564000000F1BD020461CF0A2FEA08A504400B2DE
:10565000A082208B504401B22183E08A584401B2D9
:10566000E182608B584401B2618320461CF08FFEBA
:1056700000235A46514620461CF060FFF87800F09F
:10568000010008B10A9870B904F114000D99884717
:105690001F990844BDF820100844BDF824100844A0
:1056A00000B2099008E0BDF820101F980844BDF82A
:1056B0002410081A00B20990F878C0F3800111AAEA
:1056C0000F980AF070FE044600BF24B1DDE9111006
:1056D00081427FF46AAE13B0BDE8F08F2DE9F04F40
:1056E0008DB005468946B9F1000F02D10DB0BDE875
:1056F000F08FA5F81890286810B1286818F000FB02
:1057000009EB4901062202EB410018F01BFA286060
:1057100000BF286818B900BF00BF00BFFEE700BF88
:10572000286868600221286801FB0900801CE86085
:105730000421286801FB0900001DA860B9F1010FD0
:105740000CD1B420696808700020E9680880012045
:10575000E96848800020A9680880C7E709F10101CD
:10576000C80018F039FA074609F1010007EB800874
:105770004FF0000A4FEA890002B20BA90CA800F012
:1057800067F90024BDF930008010079000200390D5
:10579000CCE0002616E00BA90CA800F061F90CA8DB
:1057A00000F04BF900B90FE0BDF93000801007A9F7
:1057B00041F82600BDF8300000F0030003A941F8CD
:1057C0002600761C042EE6DB00BF042E00D0B3E0DA
:1057D0000A990798884219D1079800B227F814004F
:1057E0000FFA8AF028F81400DDE90301084405994E
:1057F000084406990844696808556868005D000710
:10580000000E69680855601C04B28DE0DDE90701EF
:1058100088422CD0079800B227F814000FFA8AF0BB
:1058200028F814000398696808556868005D000747
:10583000000E69680855601C04B20798401E00B24B
:1058400027F814000FFA8AF028F814000498001DB5
:105850000599084406990844696808556868005D18
:105860000007000E69680855601C04B25CE00999E5
:10587000079888422CD0079800B227F814000FFA36
:105880008AF028F81400DDE9030108446968085526
:105890006868005D0007000E69680855601C04B266
:1058A0000798401E00B227F814000FFA8AF028F873
:1058B0001400059808300699084469680855686816
:1058C000005D0007000E69680855601C04B22BE0FB
:1058D000079800B227F814000FFA8AF028F814008D
:1058E000DDE90301084405990844696808556868BA
:1058F000005D0007000E69680855601C04B2079837
:10590000401E00B227F814000FFA8AF028F814009D
:1059100006980C30696808556868005D0007000E3D
:1059200069680855601C04B20AF1010A0CA800F06D
:1059300084F800287FF42DAF00BF40F2D32109FB8B
:1059400001F00290029880120190601E37F9101049
:105950000198814205D1601E38F9101001988142EA
:1059600026D0DDE90121A1EB8220B0F5007F04DC27
:1059700000FB00F14800001407E0C0F5806000FB68
:1059800000F148000014C0F10F00019909B227F896
:105990001410019909B228F814106A681055696842
:1059A000095D0907090E6A681155611C0CB200BF38
:1059B000A61E0EE038F8160027F8140037F8160077
:1059C00028F814006868805D69680855761E601CB8
:1059D00004B2002EEEDA4FF0000B00260020E9683A
:1059E000088023E0E96821F81B6037F81600A968F1
:1059F00021F81B0010E0A86830F81B0037F91610DA
:105A0000884203DAA86830F81B0001E037F9160075
:105A1000A96821F81B00761C38F91600584501D1F9
:105A2000A642E8DB0BF101000FFA80FBA642D9DBAE
:105A3000384618F04DF900BF58E60146B1F90200AA
:105A4000B1F90020904201DC012070470020FCE702
:105A5000028000234380C2F101031BB20B80704718
:105A6000B1F90020002A07DC0B8842885200D21CC2
:105A70001A4412B20A800CE042880388D21A5200FB
:105A8000521D0B881A4412B20A800288521E12B2AA
:105A900002804288521C12B24280704737B582B0F1
:105AA0001546022D04DCBDF80C10084605B030BDCB
:105AB000BDF80C00C00ABDF8081000EBD1241F2C63
:105AC00001D2204600E01F20BDF8081060F3CF216E
:105AD0000291BDF80C00C0F34510BDF80810C1F3E9
