:020000040800F2
:10000000404500200501000833180008C11600080B
:10001000311800083F0800080F1D0008000000000C
:100020000000000000000000000000005D18000853
:100030006D0800080000000035180008CD18000801
:100040001F0100081F0100081F0100081F01000810
:100050001F0100081F0100081F0100081F01000800
:100060001F0100081F0100081F0100081F010008F0
:100070001F0100081F0100081F0100081F010008E0
:100080001F0100081F0100081F0100081F010008D0
:100090001F0100081F0100081F0100081F010008C0
:1000A0001F0100081F0100081F0100081F010008B0
:1000B0001F0100081F0100087D1900081F0100082A
:1000C0001F0100081F0100081F0100081F01000890
:1000D0001F0100081F010008091D00080D1D000870
:1000E0001F0100081F0100081F010008DFF810D0E1
:1000F00000F042FB0048004751300008AFF3008099
:10010000404500200648804706480047FEE7FEE7D6
:10011000FEE7FEE7FEE7FEE7FEE7FEE7FEE7FEE7B7
:100120002F190008ED000008202A04DB203A21FAEC
:1001300002F00021704721FA02F3D040C2F1200200
:100140009140084319467047A0F14101192900D890
:100150002030704740EA01039B0703D009E008C93B
:10016000121F08C0042AFAD203E011F8013B00F87C
:10017000013B521EF9D27047D2B201E000F8012BC8
:10018000491EFBD270470022F6E710B513460A4617
:1001900004461946FFF7F0FF204610BD30B505466E
:1001A0002A460B4612F8010B13F8014B08B1A04286
:1001B000F8D01CB1002802D06D1CF1E7284630BDF4
:1001C000421C10F8011B0029FBD1801A704730B582
:1001D00005460020034600E05B1C934205D2EC5C20
:1001E000C85C201A01D1002CF6D130BD2DE9FE4F9C
:1001F000804681EA0300C00F0C46009021F00041C8
:1002000023F00045B8EB0200A94105D24046214643
:1002100090461C460B46024623F00040104347D050
:10022000270DC7F30A00C3F30A510290401A019048
:1002300040286BDAC3F3130040F4801B0098924609
:1002400020B10023D2EB030A63EB0B0B0198594654
:10025000C0F14002504600F072F906460D46504685
:100260005946019A00F07AF910EB08006141002428
:1002700087EA115284EAE7731A4340D0009A62B3C6
:10028000019A012A4FEA075215DC001B61EB0201BB
:100290004FF0004202EA0752CDE90042001C41F54E
:1002A000801132462B4600F07AF903B0BDE8F08F9A
:1002B00040462146F9E7001B61EB0201001C41F5B5
:1002C000801300185B412018A2F5001747EB0301CB
:1002D00040EAD570B6196D4111E06D084FEA360657
:1002E00045EAC0754FEA0752001B61EB0201001C92
:1002F00041F5801149084FEA30000019514132465A
:100300002B4603B0BDE8F04F00F03AB90098012247
:1003100040000023D0EB020263EBE073009821461B
:100320004FEAE074B8EB000061EB0401E9E783F009
:1003300000435BE781F0004158E72DE9FE4F81EA79
:10034000030404F0004421F0004100944FF0000B3E
:1003500023F0004350EA01045ED052EA03045BD06C
:10036000C3F30A54C1F30A552C44A4F2F3340194A4
:10037000A0FB0254C1F3130141F48011C3F3130332
:1003800043F4801301FB024400FB034E840A970AE6
:1003900044EA815447EA8357A4FB076802958D0A13
:1003A00005FB07854FEA932C04FB0C542705029D9F
:1003B0004FEA065847EA1637B5EB08056EEB070C0F
:1003C000870E920E47EA811742EA8312A7FB0201C9
:1003D000B6EB0B0164EB00042B0D43EA0C335E1803
:1003E00044EB1C50DA465146E7FB0201C5F3130407
:1003F0004FEA0B3343EA14534FEA0432019C43EAB9
:100400000603A4F10C040294009CCDE900B400F0B2
:10041000C6F803B0BDE8F08F00200146F9E70EB53D
:10042000C10F80EAE0700844CA07002140F233435C
:100430008DE80E000A460B4600F0B1F803B000BD8F
:1004400070B5C1F30A5201F000450024C1F3130155
:1004500040F2FF3341F480119A4201DA002070BD6E
:1004600040F233439A42A2F2334203DC5242FFF796
:100470005BFE00E090402C43F1D0404270BD000094
:1004800030B5041E71F1000404DB4FF0004440421B
:1004900064EB0101141E73F1000405DB1C464FF0F0
:1004A0000043524263EB0403994208BF904230BDBF
:1004B00030B50B46014600202022012409E021FA34
:1004C00002F59D4205D303FA02F5491B04FA02F531
:1004D0002844151EA2F10102F1DC30BD2DE9F05FC8
:1004E0000546002092469B468846064681464024A3
:1004F0001BE02846414647462246FFF715FE534675
:100500005A46C01A914110D311461846224600F0AF
:1005100016F82D1A67EB01084F46224601200021EC
:1005200000F00DF817EB00094E41201EA4F1010464
:10053000DFDC484631462A464346BDE8F09F202A84
:1005400004DB203A00FA02F1002070479140C2F12A
:10055000200320FA03F3194390407047202A06DB5A
:10056000CB17203A41FA02F043EAE07306E041FA81
:1005700002F3D040C2F1200291400843194670476F
:1005800010B5141E73F1000408DA401C41F100019B
:1005900092185B411A4301D120F0010010BD2DE9F2
:1005A000F04D92469B4611B1B1FA81F202E0B0FAE9
:1005B00080F220329046FFF7C2FF04460F4640EA21
:1005C0000A0041EA0B0153465A46084313D011462C
:1005D00053EA010019D0C8F140025046FFF7A4FDCC
:1005E00005460E46504659464246FFF7A8FF0843C7
:1005F00005D0012004E020463946BDE8F08D0020FA
:10060000054346EAE0762C4337430A986305E40A3B
:10061000A0EB08000022FD0A44EA47540A3002D544
:1006200000200146E9E7010510196941DDE90845A7
:1006300000196941BDE8F04DA2E72DE9F04D81EACE
:10064000030404F0004B21F0004514464FF0000A6B
:1006500023F0004150EA050220D054EA01021DD0E7
:10066000C5F30A570246C5F31303C1F31300C1F3E0
:100670000A5640F4801543F48013A7EB0608101BBC
:10068000D64608F2FD3873EB050002D308F10108E5
:1006900001E092185B41B8F1000F03DA0020014637
:1006A000BDE8F08D00204FF48011064684460EE030
:1006B000171B73EB050705D3121B63EB05030643FA
:1006C0004CEA010C49084FEA300092185B4150EAAD
:1006D0000107EDD152EA030012D082EA040083EA56
:1006E0000501084305D0101BAB4106D201220023AF
:1006F00006E000224FF0004302E06FF001025310C9
:100700001AEB06004CEB085110EB0A0041EB0B0111
:10071000BDE8F04DFFF734BF70B521F0004303434F
:100720000CD0C1F30A550024D5EB040564EB040397
:10073000D617AD1AB34102DB0020014670BD201868
:1007400041EB025170BDC1F30A52C1F3130140F2F3
:10075000FF3341F480119A4202DA002001467047CB
:1007600040F233439A42A2F2334202DC5242FFF794
:10077000DBBCFFF7E4BE0000064C074D06E0E06876
:1007800040F0010394E8070098471034AC42F6D3D8
:10079000FFF7B0FC74E8000894E800082DE9F04D7C
:1007A00000231A461B1A8A4103DB00200146BDE8DC
:1007B000F08DC1F30A52C1F3130141F480154FF0DB
:1007C000000BD10702D100186D41521E00270446CC
:1007D00040F2FF11384601EB620A3E46804602466F
:1007E00000204FF48011FFF79FFCC2197141BB1824
:1007F00046EB0100B4EB030C75EB000C04D3E41AD8
:1008000065EB000517460E46241908F101006D41FD
:1008100080463428E3DDF91946EB0600091BA841A0
:1008200003D24FF0FF32134601E0002213461BEBC8
:10083000070046EB0A51BDE8F04DFFF7A1BEFEE709
:1008400030B590F840500124AC40C56B6C60046832
:1008500063604368102B04D0036899600068C2602D
:1008600030BD03689A600068C16030BD704772B6E1
:10087000FEE7000010B514A214A1002002F0EAFA6D
:10088000642216A116A002F021FB642218A119A06F
:1008900002F01CFB1A4C002020801A4802F04EFB8C
:1008A0004FF47A7002F0CEF92088000403D516497F
:1008B000164801F0C1FF02F075FA322207A114A018
:1008C00002F004FB002010BD383000003131362E1C
:1008D00036322E38312E3133380000004F4B0000B5
:1008E00041542B4349504D4F44453D3100000000D9
:1008F0003E00000041542B43495053454E440000F4
:100900001C000020C8E6000834080020F401002084
:1009100041542B434950434C4F53450030B50028B8
:1009200027D0001D144A50F8041C14230A44B2FBBB
:10093000F3F29200C263114A8263022242770A688C
:1009400043F6F0739A43D0E900342343D0E90245DB
:100950002C43234304692343446923438469234389
:1009600013430B600021416301224277017700208D
:1009700030BD012030BD0000F8FFFDBF0000024087
:1009800070B50446002594F8200001280CD0012001
:1009900084F8200094F821600020012E06D084F80D
:1009A00020000225284670BD022070BD022684F872
:1009B0002160A0632068066826F0010606602046D4
:1009C000FFF73EFFE06A28B12068016841F00E01A0
:1009D000016009E02068016821F0040101602068DD
:1009E000016841F00A0101602068016841F00101DD
:1009F0000160D7E72DE9F84F00240023DFF8C49108
:100A00004FF00F08A9F1040B09F1040AABF1040E31
:100A1000D1E00127A7403A40BA4275D1DFF8A8C11A
:100A20004D68A5EB0C0665452BD00DDC032D34D0AD
:100A300005DC35B3012D19D0022D2FD11BE0112D6E
:100A400016D0122D2AD119E0B6F5881F19D006DC70
:100A5000B6F5803F15D0B6F5801F1FD111E0B6F571
:100A6000001F0ED0B6F5041F18D10AE0CB6815E0C0
:100A7000CB681B1D12E0CB6808330FE0CB680C334A
:100A80000CE08B6823B1012B04D00823476105E0FB
:100A9000042303E00823076100E00023FF2A01D8B4
:100AA000054601E000F1040502D84FEA840603E0A0
:100AB000A4F108064FEA86062F6808FA06FC27EA22
:100AC0000C0703FA06F647EA06072F604D68ED00AB
:100AD00070D53E4DAE6946F00106AE61AD6905F0D8
:100AE000010500953A4D24F003067719BE68A50765
:100AF0002D0F08FA05FC26EA0C06DFF8D8C0604581
:100B000003D14FF0000C17E054E0DFF8CCC0604593
:100B100002D14FF0010C0FE0DFF8C0C0604502D1F8
:100B20004FF0020C08E0DFF8B8C0604502D14FF08A
:100B3000030C01E04FF0040C0CFA05FC4CEA060C27
:100B4000C7F808C04D68ED0205D5D9F80050154327
:100B5000C9F8005004E0D9F800509543C9F8005096
:100B60004D68AD0205D5DAF800501543CAF80050BB
:100B700004E0DAF800509543CAF800504D68AD0320
:100B800005D5DBF800501543CBF8005004E0DBF846
:100B900000509543CBF800504D68ED0305D5DEF8C5
:100BA00000501543CEF8005004E0DEF800509543A5
:100BB000CEF80050641C0A6832FA04F57FF429AFBD
:100BC000BDE8F88F08040140000011100010024039
:100BD0000000014000080140000C014000100140ED
:100BE00000140140002A01D001617047090401612D
:100BF0007047000001488068704700000000002036
:100C0000024881680278114481607047000000202A
:100C100010B50748016841F010010160032000F0A1
:100C200077F80F2000F006F800F026F8002010BD3D
:100C30000020024070B504460D4D4FF47A712878BB
:100C4000B1FBF0F00B490968B1FBF0F000F038FBA4
:100C500008B1012070BD102C07D200222146501E81
:100C600000F036F86C60002070BD012070BD0000FF
:100C7000000000200C00002008B50C48816941F0FC
:100C800001018161816901F001010091C16941F0B7
:100C90008051C161C06900F08050009004494868EB
:100CA00020F0E06040F00070486008BD0010024095
:100CB00000000140002809DB00F01F0201219140E3
:100CC0004009800000F1E020C0F8001170470000EA
:100CD000F0B40D460D4B1B68C3F30223C3F10704A8
:100CE000042C00D90424191D072901D2002300E097
:100CF000DB1E012606FA04F1491E294099409E4058
:100D0000761E16403143F0BC01F04CB80CED00E00B
:100D100000F00701054A10684FF6FF03184040EA4B
:100D20000120034908431060704700000CED00E00B
:100D30000000FA052DE9F04704460D46002C17D0B7
:100D4000DFF83081D8F8000000F00700A84211D287
:100D5000D8F8000020F007002843C8F80000D8F8B1
:100D6000000000F00700A84204D00120BDE8F08791
:100D70000120FBE72068404E810712D5400703D5CC
:100D8000706840F4E06070602078000703D57068F8
:100D900040F4605070607068A16820F0F000084373
:100DA00070602078C0072CD06068012806D0022827
:100DB00009D0316889070BD40120D7E7316889034E
:100DC00006D40120D2E73168890101D40120CDE7A2
:100DD000716821F0030101437160FFF70BFF0746C3
:100DE00041F2883906E0FFF705FFC01B484501D9ED
:100DF0000320BBE77068616800F00C00B0EB810F66
:100E0000F1D1D8F8000000F00700A8420ED9D8F8B8
:100E1000000020F007002843C8F80000D8F80000C0
:100E200000F00700A84201D001209FE7207840078A
:100E300005D57068E16820F4E060084370602078B0
:100E4000000706D57068216920F4605040EAC100AF
:100E5000706000F03FF87168084AC1F30311515CFB
:100E6000C8400749086007480068FFF7E3FE002014
:100E70007CE700000020024000100240B24200085F
:100E80000C000020040000200148006870470000AA
:100E90000C00002000B5FFF7F7FF04494968044A39
:100EA000C1F30221515CC84000BD000000100240A7
:100EB000C242000800B5FFF7E7FF04494968044A49
:100EC000C1F3C221515CC84000BD000000100240C7
:100ED000C24200080E4B59680E4801F00C02042A69
:100EE00011D0082A0FD10C48C1F38342805CC9039A
:100EF0000AD55968084AC1F34041921E515C054A1F
:100F00005043B0FBF1F0704704494843704700007C
:100F10000010024000127A00A242000800093D00C1
:100F20002DE9F84F0446002C0ED02078D94DC0078B
:100F30005ED06868C0F3810001280BD06868C0F3F8
:100F40008100022803D00CE00120BDE8F88F68681A
:100F5000C00306D5286880034AD56068A8BB012075
:100F6000F3E76068B0F5803F11D0A8B1B0F5A02FCD
:100F70001BD0286820F480302860286820F4802066
:100F80002860606830B3FFF735FE06461EE028682B
:100F900040F480302860F4E7286820F4803028602E
:100FA000286820F480202860EBE7286840F480203F
:100FB0002860286840F480302860E2E7FFF71AFED6
:100FC000801B642802D90320BFE711E02868800352
:100FD000F4D50DE0FFF70EFE064606E0FFF70AFE29
:100FE000801B642801D90320AFE728688003F5D46B
:100FF0002078DFF8A48280074FF0010A4FF0000943
:1010000045D5686810F00C0F07D06868C0F3810000
:10101000022812D16868C0030FD42868800704D55D
:101020002069012801D001208FE72868616920F03C
:10103000F80040EAC100286029E02069B8B1C8F88A
:1010400000A0FFF7D7FD064606E0FFF7D3FD801BA3
:10105000022801D9032078E728688007F5D5286899
:10106000616920F0F80040EAC10028600FE0C8F88C
:101070000090FFF7BFFD064606E0FFF7BBFD801BB3
:10108000022801D9032060E728688007F5D420787A
:10109000000726D58148A16999B1C0F800A0FFF7E3
:1010A000A9FD064606E0FFF7A5FD801B022801D931
:1010B00003204AE7686A8007F5D5012000F0BCFBF1
:1010C0000FE0C0F80090FFF795FD064606E0FFF739
:1010D00091FD801B022801D9032036E7686A80074A
:1010E000F5D42078400773D50026E869C00008D4FD
:1010F000E86940F08050E861E86900F080500090B5
:101100000126DFF89CB1DBF80000C00514D4DBF841
:10111000000040F48070CBF80000FFF76BFD07463D
:1011200006E0FFF767FDC01B642801D903200CE728
:10113000DBF80000C005F4D5E068012812D0B0B19A
:1011400005281DD0286A20F001002862286A20F0B6
:1011500004002862E06841F2883B28B3FFF74AFDAB
:1011600007461DE0286A40F001002862F2E7286A7D
:1011700020F001002862286A20F004002862E9E7D4
:10118000286A40F004002862286A40F001002862C2
:10119000E0E7FFF72FFDC01B584501D90320D4E637
:1011A000286A8007F5D50DE0FFF724FD074606E025
:1011B000FFF720FDC01B584501D90320C5E6286A6A
:1011C0008007F5D4012E03D1E86920F08050E86152
:1011D000E069A0B36968C1F38101022946D0022801
:1011E00005D0C8F86090FFF705FD04463AE0C8F85E
:1011F0006090FFF7FFFC064606E0FFF7FBFC801B54
:10120000022801D90320A0E628688001F5D4206ACD
:10121000B0F5803F05D16868A16820F4003008432C
:101220006860D4E908010843696821F4741108432F
:101230006860C8F860A0FFF7DDFC044607E026E020
:10124000FFF7D8FC001B022801D903207DE628689F
:101250008001F5D51BE0FFF7CDFC001B022801D96A
:10126000032072E628688001F5D410E001280CD034
:101270006868226A00F48031914204D1616A00F406
:101280007010884203D001205FE601205DE6002057
:101290005BE600000010024000004242800442422F
:1012A000007000404FF0E021042804D0086920F0CD
:1012B000040008617047086940F004000861704745
:1012C00010B5401EB0F1807F01D3012010BD4FF05A
:1012D000E02460610F21601700F064FD0020A06130
:1012E00007202061002010BD70B590F83C20012A35
:1012F00025D0012680F83C60022280F83D2002685B
:101300005468936824F070050C682C4354600D4CAD
:101310000268A24208D0B2F1804F05D00A4CA24226
:1013200002D00A4CA24204D123F080034968194339
:1013300091603C30467000210170002070BD022099
:1013400070BD0000002C0140000400400008004077
:1013500010B50446002C03D094F83D0010B107E00E
:10136000012010BD002084F83C00204600F016F853
:10137000022084F83D00211D206800F001FB0120BF
:101380003D3460726070A070E07020716071A07177
:10139000E07120722070002010BD000008B50068C8
:1013A0000B49884212D10B48C16941F00401C16167
:1013B000C06900F004000090002211461E20FFF7D3
:1013C00087FCBDE808401E20FFF774BC08BD000084
:1013D000000800400010024070B50446002594F853
:1013E0003C00012817D0012684F83C60022084F8D4
:1013F0003D002068826822F0770222F47F428260FA
:101400000868502838D00DDC202853D005DC90B374
:10141000102811D14EE0022070BD30284AD040285B
:101420000AD13DE0602831D070280CD0B0F5805F43
:1014300003D0B0F5005F12D001253C346670002067
:101440002070284670BDCB68D1E90121206800F0EA
:10145000D3FA2068816841F077018160EDE7CB68BD
:10146000D1E90121206800F0C7FA2068816841F4C1
:1014700080418160E1E71DE0CA684968206800F0AA
:10148000CDFA5021206800F0C1FAD6E7CA68496851
:10149000206800F0D4FA6021206800F0B7FACCE7A9
:1014A000CA684968206800F0B9FA4021206800F055
:1014B000ADFAC2E722680146104600F0A7FABCE781
:1014C0007047704770B50446002C04D094F8410072
:1014D000002510B106E0012070BD84F84050204680
:1014E00000F024F8242084F841002068C16821F429
:1014F0000051C160204600F061FB2068016921F4C1
:10150000904101612068416921F02A014161206810
:10151000C16841F40051C1606564202084F8410035
:1015200084F842006563002070BD00002DE9F041A1
:1015300086B00446002502950395049505954F4E07
:1015400021684F480222032380274FF48058B1427C
:101550003ED1C16941F40031C161C16901F400317A
:101560000191816941F004018161806900F004000A
:1015700001900420029003920593424E02A9304646
:10158000FFF738FA082002900395049502A9304627
:10159000FFF730FA3D4E3C4830607560B560F7604B
:1015A00035617561B561C6F81C803046FFF7B6F944
:1015B00008B1FFF75CF9E66374620022012126207E
:1015C000FFF786FB2620FFF775FB06B0BDE8F0812C
:1015D0002F4EB142F9D1C16941F48021C161C16985
:1015E00001F480210191816941F0080181618069E4
:1015F00000F0080001903015029003920593254EEB
:1016000002A93046FFF7F6F9F0140290039504950D
:1016100002A93046FFF7EEF91B481F4E3C383060F8
:101620007560B560F76035617561B561C6F81C809D
:101630003046FFF773F908B1FFF719F9E6637462F2
:101640001148164E5038306010207060B560F76059
:1016500035617561B561F5613046FFF75FF908B135
:10166000FFF705F9A6637462002201212720FFF726
:101670002FFB2720FFF71EFBA7E7000000440040D8
:1016800000100240000801406C00024028010020C8
:1016900000480040000C01406C010020B001002017
:1016A00090F84230202B01D00220704721B11AB1AE
:1016B0000023036300F0DEBA0120704770477047D3
:1016C000FEE7000008B50548416941F001014161AC
:1016D000406900F00100009008BD000000100240C9
:1016E00070B586B0002402940394049405941A48BB
:1016F000816941F010018161816901F0100101915E
:10170000816941F020018161816901F0200101912D
:10171000816941F004018161816901F00401019155
:10172000816941F008018161806900F00800019041
:1017300001220A4E550329463046FFF753FA029517
:101740000121039104940321059102A93046FFF77A
:1017500051F906B070BD00000010024000100140B9
:1017600010B586B000240294039404940594009468
:10177000019414481249016023214160846040F2C1
:10178000E731C16004618461FFF7E2FD08B1FFF752
:101790006EF84FF48050029002A90A48FFF71CFE31
:1017A00008B1FFF764F80094019469460548FFF713
:1017B0009BFD002801D0FFF75AF806B010BD0000CD
:1017C000000800405000002010B50B480949016096
:1017D0004FF4E131416000218160C16001610C2260
:1017E00042618161C161FFF76DFE002801D0FFF702
:1017F0003EF810BD004400409800002010B50B4892
:10180000094901604FF4E131416000218160C1600C
:1018100001610C2242618161C161FFF753FE002822
:1018200001D0FFF724F810BD00480040E000002080
:10183000FEE7FEE77047000008B507494FF4FA528B
:101840000968B1FBF2F14143009100BF0098411ECD
:101850000091FAD208BD00000C0000207047000083
:10186000F0B5002300245F1E27E0C55C2E0601D4DE
:10187000155520E00E26B6EB151F22D19E1C8E4278
:1018800001DB3846F0BD2D072E0CC51895F801C0B8
:10189000AD780CF03F0C46EA8C1605F03F052E4360
:1018A000094DA6F59C4635F816502E0A1655161900
:1018B0007570641C9B1C5B1C641C8B42D5DB002078
:1018C000F0BD3846F0BD0000EC420008FFF798B9C3
:1018D00030B58FB0282105A8FEF755FC14216846C5
:1018E000FEF751FC0121059108040690002407949D
:1018F000099102250C950D904FF4E0100E9005A86B
:10190000FFF70EFB08B1FEF7B2FF0F200090019524
:1019100002944FF480600390049402216846FFF71C
:1019200009FA002801D0FEF7A2FF0FB030BD7047C2
:1019300010B5482000F01CFFBDE8104001F060BA6F
:1019400070B5084C00252078012805D0022802D166
:10195000FEF790FF257070BD03A106A001F000FA0C
:10196000257070BD100000203133303138383939DE
:101970000000000043555F555A47620001F004BB68
:10198000F0B50268194C1A4D1A4E4FF08047A0422C
:1019900005D0B84203D0A84201D0B04203D122F012
:1019A00070034A681A43A04205D0B84203D0A84247
:1019B00001D0B04203D122F44073CA681A434B6984
:1019C00022F080021A4302608A68C2620A68826258
:1019D000A04201D109690163012141610169C9077F
:1019E00003D0016921F001010161F0BD002C01402B
:1019F000000400400008004010B5846824F47F44CF
:101A000042EA03220A432243826010BD826822F028
:101A100070020A4342F007018160704710B5036A03
:101A2000046A24F001040462846924F0F00444EAA6
:101A3000021423F00A020A438461026210BD10B549
:101A4000036A046A24F010040462846924F4704474
:101A500044EA023223F0A00343EA011182610162E9
:101A600010BD70B5446A20684069C0F3C01094F896
:101A700041100025212904D118B1E584204600F049
:101A80008EF820684069C0F3801094F84210222933
:101A900004D118B1E585204600F05AF8606C40F09A
:101AA000100060642046FFF70CFD70BD10B50146C4
:101AB000486A096809684FF0000389062ED4C38577
:101AC00001680C3151E8002F22F4807241E80024B3
:101AD000002CF5D10168143151E8002F22F00102E9
:101AE00041E80024002CF5D10168143151E8002FA1
:101AF00022F0400241E80024002CF5D1202180F89A
:101B00004210016B012909D101680C3151E8002F05
:101B100022F0100241E80024002CF5D14363016B50
:101B2000012902D0FFF7CAFD10BD818DFFF7C8FC67
:101B300010BD10B5406A01214163016B012902D03B
:101B4000FFF7BDFD10BD818D4908FFF7B9FC10BD41
:101B500001680C3151E8002F22F4907241E8002313
:101B6000002BF5D10168143151E8002F22F0010259
:101B700041E80023002BF5D1016B012909D101684F
:101B80000C3151E8002F22F0100241E80023002B15
:101B9000F5D1202180F842100021016370470168CF
:101BA0000C3151E8002F22F0C00241E80023002B45
:101BB000F5D1202180F841107047000070B504462F
:101BC00020680169E26821F4405111430161A16874
:101BD00020690143606901432068C26841F20C63D7
:101BE0009A430A43C26020684169A26921F44071A6
:101BF000114341611E492068884202D1FFF75AF91A
:101C000001E0FFF747F900EBC00101EB001061684C
:101C100064228900B0FBF1F3B3FBF2F36FF0180616
:101C20007343B0FBF1F5B0FBF1F605EB830532230E
:101C300003EB0515B5FBF2F5B6FBF2F605F0F00582
:101C400005EB0615B0FBF1F6B0FBF1F0B0FBF2F0DE
:101C50006FF01801484306EB800003EB0010B0FB67
:101C6000F2F0216800F00F002844886070BD000089
:101C70000038014037B582B004461346039AA26289
:101C8000A38500206064222184F84210E56B1B4983
:101C9000A962E56B1A49E962E56B1A492963E16BB0
:101CA00048632168E06B091DFEF76AFE2068016841
:101CB00040680190206948B120680C3050E8001F4E
:101CC00041F4807140E80012002AF5D120681430F8
:101CD00050E8001F41F0010140E80012002AF5D150
:101CE0002068143050E8001F41F0400140E8001225
:101CF000002AF5D105B0002030BD0000AD1A000863
:101D0000331B0008631A000801F074B97047FEE73E
:101D10000FB4054B10B503A9044A029800F0A0F9CE
:101D200010BC5DF814FB00003930000818000020DA
:101D30000FB4084B10B504A902AA039800F090F95B
:101D4000044602A9002000F00EFD204610BC5DF8FC
:101D500014FB00006727000837B514460846064BF9
:101D60006A46214600F07CF904466946002000F0EE
:101D7000FAFC20463EBD000067270008490050EAF3
:101D8000C12018BF04204A0D18BF40F0010040F2E6
:101D9000FF72B2EB515F08BF40F00200012808BF9C
:101DA000052070470907090E002804DB00F1E02038
:101DB00080F80014704700F00F0000F1E02080F878
:101DC000141D70472DE9F0414F1E00EBC70104467A
:101DD000D1E9000115461E4637F006020DD02A460D
:101DE0003346FEF7AAFA7F1E04EBC703D3E90023AC
:101DF000FEF7FCF937F00602F1D1022F25D0042FAF
:101E000013D0062F18BFBDE8F0812A463346FEF7EF
:101E100094FAD4E90A23FEF7E9F92A463346FEF795
:101E20008CFAD4E90823FEF7E1F92A463346FEF797
:101E300084FAD4E90623FEF7D9F92A463346FEF799
:101E40007CFAD4E90423FEF7D1F92A463346FEF79B
:101E500074FAD4E90223FEF7C9F92A463346FEF79D
:101E60006CFAD4E90023BDE8F041FEF7BFB90000E9
:101E70000022134610460149FEF7DFBB0000F03F89
:101E8000FEF7B4B90022134610461146FEF7D5BB43
:101E900040F2013200204FF0E041FEF73DBC00006F
:101EA000024A00201107FEF737BC000001FDFFFFCA
:101EB00002E008C8121F08C1002AFAD17047704713
:101EC000002001E001C1121F002AFBD17047000071
:101ED00001490860704700004C0000202DE9FF5FB9
:101EE00082B00021DDE90430020DDDF840B003438B
:101EF00018D044F61050A2F2FF3242431514119844
:101F000001281FD0A5EB0B00401C5FEA000A4FF030
:101F100000064E4FDFF83891B046504615D5CAF14D
:101F2000000413E0119801244AA3012801D16FEAAB
:101F30000B010298119AC0E90031C0E9024206B0D3
:101F4000BDE8F09FCBF10000DFE704460021404AE6
:101F5000491842EB0450CDE9001012E0E00707D029
:101F600032463B4640464946FEF7E7F980468946F9
:101F700032463B4610461946FEF7DFF906460F4645
:101F80006410002CEAD1DDE90401DDE90023BAF197
:101F9000000F06DAFEF7D1F942464B46FEF7CDF9BF
:101FA00005E0FEF74AFB42464B46FEF746FB044679
:101FB0000E460022284BFEF763FA03D84FF0FF309D
:101FC000014607E00022254B20463146FEF70EF978
:101FD000FEF7B9FB102409E0002C0ADB0A220023DB
:101FE000FEF77CFA039B30321A55641E50EA010258
:101FF000F2D1641C039AC4F111031444119A012A0A
:1020000003D0012208430DD10AE0084304D0002088
:102010004FF0110B119072E7A3EB0B056D1E0DE055
:102020005B4504DD4FF0000205F1010504E003DA31
:102030004FF00002A5F10105002AECD00298119999
:10204000C0E90231C0E9004579E700000000144012
:102050000000F03F300000000000F0430000E03FCF
:102060002DE9FF4F95B09A46884606460025EEE1D9
:10207000252877D100242746F94A0121039400E05E
:10208000044316F8013F203B01FA03F01042F7D158
:1020900030782A2811D06FF02F033078A0F1300269
:1020A000092A16D8039A44F0020402EB820203EBD9
:1020B00042021044761C0390EFE758F8042B039279
:1020C000002A03DA504244F40054039044F002041E
:1020D000761C30782E2816D116F8010F44F004042F
:1020E0002A280DD06FF02F023078A0F13003092B91
:1020F00009D807EB870302EB4303C718761CF3E705
:1021000058F8047B761C30786C280FD006DC4C28FD
:1021100017D068280DD06A2814D104E0742810D094
:102120007A280FD10DE044F400140AE044F480143E
:1021300001E044F440147278824202D104F5801424
:10214000761C761C307866280BD013DC582877D0A4
:1021500009DC002875D04528F6D04628F4D0472859
:102160001AD193E118E0632835D0642879D0652826
:1021700012D18BE1702873D008DC6728F1D0692870
:102180006FD06E280DD06F2806D1ACE073282CD00C
:10219000752874D0782853D05246179990476D1CF3
:1021A00054E1C4F30250022809D003280DD0D8F816
:1021B000001004280DD00D6008F1040846E1D8F89D
:1021C0000010EA17C1E90052F6E7D8F800100D80B8
:1021D000F2E70D70F0E718F8041B8DF800100020EE
:1021E0008DF80100EB46012003E058F804BB4FF0E6
:1021F000FF3061074FF0000102D40DE009F1010149
:102200008946B9420FDA8145F8DB1BF8091000292D
:10221000F4D108E009F1010189468142FADB1BF89B
:1022200009100029F6D103985346A0EB090721466F
:102230003846179A00F080FA284400EB090507E0B9
:1022400044E008E10DE01BF8010B52461799904756
:10225000B9F10109F7D2534621463846179AF2E000
:1022600039E00A21C4F302524FF0000B0091022A18
:1022700006D058F8040BC117032A09D00AE023E05E
:1022800008F1070020F00702F2E80201904605E09D
:1022900000B2C117042A01D140B2C117002906DAE1
:1022A0000A460021404261EB02012D2202E0220594
:1022B00004D52B228DF80420012203E0E20701D08F
:1022C0002022F7E7914657E00A2100E010214FF065
:1022D000000B00910BE010214FF0000B44F00404C0
:1022E0000827009103E008204FF0000B0090C4F392
:1022F0000252022A05D058F8040B0021032A08D004
:1023000008E008F1070020F00702F2E80201904619
:1023100003E080B2042A00D1C0B24FF000092207C6
:102320002AD53278702A07D0DDF800C08CF0100C66
:102330005CEA0B0C05D00EE040228DF8042001224F
:1023400008E050EA010306D030238DF804308DF800
:10235000052002229146009B83F0080353EA0B03F9
:102360000AD150EA010201D1620705D530228DF869
:1023700004204FF001097F1E3278582A04D039A278
:102380000C920CAA02920BE03BA2F9E75B46009A82
:10239000FEF7A4F80C9B9B5C029A521E02921370EB
:1023A00050EA0102F2D1029804A9081A00F1200BA8
:1023B000600702D524F4803400E001275F4502DD88
:1023C000A7EB0B0000E0002000EB0B01009003984E
:1023D0004944401A0390E00306D453462146179A15
:1023E000039800F0A9F90544002706E001A8524629
:1023F000C05D179990476D1C7F1C4F45F6DBE003CD
:102400000CD553462146179A039800F095F90544D8
:1024100004E030205246179990476D1C0099481EE1
:1024200000900029F5DC08E00298029952460078F5
:10243000491C0291179990476D1CBBF10001ABF14B
:10244000010BF1DC5BE100F065F90544761C3078A6
:1024500000287FF40DAE19B02846BDE8F08F0000CB
:10246000092801003031323334353637383961626A
:10247000636465660000000030313233343536372E
:10248000383941424344454600000000600700D40B
:10249000062708F1070020F00700F0E80223804635
:1024A00003F0004C5FEA0C0001D097A009E0200582
:1024B00001D596A005E0E00701D095A001E0AFF2BC
:1024C0004C001390307823F0004365280CD006DCD4
:1024D000452809D046281DD047287FD13BE06628F3
:1024E00018D067287AD136E00021112F01DB1120A6
:1024F00000E0781CCDE9000104A90CA8FFF7EEFC70
:10250000DDE90D010C9A4FF0000B07F10109109263
:1025100000914EE04FF000400097CDE9011004A972
:102520000CA8FFF7DBFCDDE90D020C9B0F994FF0C7
:10253000000B91461093009211B9791C00EB010930
:10254000B7EB090003D4C0F1FF3B07F10109A9EB88
:102550000700019042E0012F00DA01270021112F2E
:1025600001DD112000E03846CDE9000104A90CA8E6
:10257000FFF7B4FCDDE90D010C9A00914FF0000B60
:10258000B946109221070FD4009A4A4503DA9146C2
:1025900001E0A9F10109B9F1010F05DD109AA9F1D6
:1025A0000101515C3029F4D0B84202DA10F1040F75
:1025B00003DA0121CDE9011010E0002803DC834497
:1025C000A9EB000102E0411C494500DD8946A0EB72
:1025D0000B00401C01904FF000400290200705D4F2
:1025E0000198484502DB4FF0FF30019000208DF844
:1025F0004B0002980DF14B07B0F1004F25D002209F
:102600000C902B200D90029800280CDA404202908A
:102610002D200D9007E00A210298FDF749FF303187
:10262000029007F8011D0C99481E0C900029F2DC5D
:1026300002980028EFD1791E0D980870307800F0CC
:10264000200040F0450007F8020D11A8C01BC01D76
:1026500002901398007800B1012000EB0901019865
:1026600001EBE071029801440398401A401E039068
:10267000E00306D453462146179A039800F05CF80D
:1026800005441398007818B15246179990476D1C6D
:10269000E00323D553462146179A039800F04CF8DF
:1026A00005441BE0BBF1000F07DB0098584504DD33
:1026B0001098179910F80B0001E017993020524636
:1026C000904701980BF1010B401E05F101050190A7
:1026D00004D12E205246179990476D1CB9F1000184
:1026E000A9F10109DEDC05E017F8010B5246179944
:1026F00090476D1C0299481E02900029F4DC534655
:102700002146179A03989EE62D0000002B0000003A
:10271000200000002DE9F041044600251E46174622
:10272000880404D405E039462020B0476D1C641E9F
:10273000F9D52846BDE8F0812DE9F0410446002591
:102740001E469046C80301D5302700E020278804A4
:1027500004D505E041463846B0476D1C641EF9D5E6
:102760002846BDE8F0810A68531C0B601070704762
:1027700010B504460420FEF795FD0148046010BD25
:102780001400002070B504460F4E19E02568A0899A
:10279000C00503D4A06808B1FFF7F4FFA089C00505
:1027A00003D4206908B171688847A089800503D4E3
:1027B000206A08B1716888477168204688472C46AE
:1027C000002CE3D170BD000024000020806801E0EF
:1027D000491E0068002801D00029F9DC7047816893
:1027E000002001E0401C09680029FBD1704700006F
:1027F00001488068704700002400002070B50D4635
:10280000846800E024682CB12946206A00F0F4F9BD
:102810000028F7D1204670BD10B506492820096868
:10282000884704461CB128212046FDF7ACFC204611
:1028300010BD0000240000202DE9F84F06460D468B
:102840002021002000F0F4FC04462021002000F0AC
:10285000EFFC074620212046FDF795FC2021384655
:10286000FDF791FC304600F091F980465FEA0800E0
:102870007DD088A1FFF7C2FF06463046FFF7AFFFC5
:10288000014686A0FFF744FA00213046FFF79EFF7D
:10289000B0F100096CD089A14846FFF7AFFFB0F155
:1028A000000A5FD08848FFF733FA8848FFF730FA0C
:1028B00087A15046FFF7A2FF20B10269016A85A0F7
:1028C000FFF726FA8AA15046FFF798FF061E16D09A
:1028D00034692046FDF774FC01466B463A462046B3
:1028E000FEF7BEFF3A467BA0316AFFF711FA384681
:1028F000FDF766FC024639462846FDF72BFC7EA113
:102900005046FFF77BFF20B10269016A71A0FFF713
:10291000FFF97BA15046FFF771FF061E0ED0346908
:102920002046FDF74DFC01466B463A462046FEF731
:1029300097FF3A4667A0316AFFF7EAF972A150465D
:10294000FFF75CFF20B10269016A62A0FFF7E0F9BE
:1029500070A15046FFF752FF20B10269016A5DA0E5
:10296000FFF7D6F96FA14846FFF748FF01E088E07E
:1029700079E0B0F1000A68D020212046FDF703FC81
:1029800020213846FDF7FFFB6748FFF7C1F967A133
:102990005046FFF733FF061E17D034692046FDF777
:1029A0000FFC01466B463A462046FEF759FF3A4671
:1029B00048A0316AFFF7ACF93846FDF701FC024642
:1029C000394605F12000FDF7C5FB20212046FDF723
:1029D000DAFB20213846FDF7D6FB56A15046FFF71B
:1029E0000DFF70B10769016A3A463AA0FFF790F906
:1029F0003846FDF7E5FB0246394605F14000FDF794
:102A0000A9FB20212046FDF7BEFB20213846FDF71B
:102A1000BAFB4AA15046FFF7F1FE70B10769016A9F
:102A20003A462CA0FFF774F93846FDF7C9FB024679
:102A3000394605F16000FDF78DFB20212046FDF7AA
:102A4000A2FB20213846FDF79EFB3FA14846FFF739
:102A5000D5FE051E07D03F48FFF75AF93EA02A6968
:102A6000296AFFF755F94046FFF78CFE2146002002
:102A700000F0D2FB3946002000F0CEFB0020BDE87C
:102A8000F88FFFF7B5FE01463BA0FFF741F90120A3
:102A9000F5E70000726573756C747300634A534FF9
:102AA0004E5F476574417272617953697A653A2065
:102AB00073697A653D25640A000000006C6F6361EC
:102AC00074696F6E0000000024E8000840E7000809
:102AD00069640000634A534F4E5F4765744F626AF2
:102AE0006563744974656D3A2025733A25730A004D
:102AF0006E616D6500000000636F756E7472790021
:102B0000706174680000000074696D657A6F6E65AD
:102B10000000000074696D657A6F6E655F6F6666B0
:102B2000736574006E6F77008CE7000874657874C5
:102B300000000000636F64650000000074656D7044
:102B400065726174757265006C6173745F75706431
:102B500061746500D8E70008634A534F4E5F4765CC
:102B6000744F626A6563744974656D3A2025733ADF
:102B700025730A0A000000004572726F72206265B8
:102B8000666F72653A205B25735D0A00002211466C
:102B9000AFF300802DE9F04104460D469046FFF763
:102BA0003BFE0646134F0020B860C6B1204601F038
:102BB00047FB0146304600F0F9FD04468CB1B8F100
:102BC000000F13D0204601F03BFB0446207868B18B
:102BD0003046FFF7D7FDBC600020BDE8F081002043
:102BE000FBE73046FFF7CEFD0020F6E705B12C608D
:102BF0003046F2E72400002070B504460D46002C54
:102C000001D02DB10AE00DB1012070BD002070BDD2
:102C1000012070BD207898B1641C6D1C2078FDF7F0
:102C200093FA06462878FDF78FFA8642F2D020788C
:102C3000FDF78AFA04462878FDF786FA201A70BD57
:102C4000002070BD31B500244FF47A7503E02846AA
:102C500000F006F8641CBDF800108C42F7D338BDB4
:102C600071B500204FF0E0256B690A49009C0968A6
:102C70004C43AA69A9699142FCD003D2A2EB01029C
:102C8000104403E0A3EB0106324410440A46A0427C
:102C9000F0D378BD1400002010B54FF4FA7409E0A9
:102CA00000F080F8C82219A119A000F00FF9204601
:102CB000FFF7C8FF142215A119A000F007F900289A
:102CC000EED1142211A117A000F000F90028F8D1CC
:102CD00032220EA115A000F0F9F814220BA116A0C3
:102CE00000F0F4F84FF47A742046FFF7ABFF20466B
:102CF000FFF7A8FF12A115A000F032F8BDE81040C0
:102D0000142202A113A000F0E1B800004F4B000014
:102D100041542B4349504D4F44453D300000000085
:102D200041540000415445300000000041542B4301
:102D3000574D4F44453D330041542B5253540000EE
:102D400031333031383839390000000043555F5590
:102D50005A47620041542B4349504D55583D30006D
:102D600010B50C4C0B46024605A16068FEF7E0FF6B
:102D70006068BDE810404FF4967207A100F0A6B855
:102D800041542B43574A41503D222573222C222582
:102D9000732200001C0000205749464920474F5429
:102DA0002049500070B5124E30680168C943490689
:102DB000FBD4104D2B242C600F20FFF743FF30680D
:102DC0000168C9434906FBD42C600F20FFF73AFF86
:102DD00030680168C9434906FBD42C606420FFF7C2
:102DE00031FFBDE87040142203A104A000F06EB8CA
:102DF00098000020044400404F4B00004154000064
:102E000008B54FF49671002000F012FA0D494860A1
:102E10000D490868C26842F01002C2600868016883
:102E2000406800904FF47A7208490748FEF738FC72
:102E300007480068C16841F00101C160BDE8084071
:102E4000FFF72ABF1C00002098000020F40100209A
:102E50005000002070B50C4D0400686802D0012CB1
:102E60000BD105E013460A4608A1FEF761FF04E016
:102E700013460A460CA1FEF75BFF6868BDE8704088
:102E8000642210A100F022B81C00002041542B4302
:102E9000495053544152543D22544350222C222530
:102EA00073222C257300000041542B434950535486
:102EB0004152543D22554450222C222573222C2568
:102EC00073000000434F4E4E454354002DE9F0413E
:102ED0000E4614460027154DB846A5F80080014659
:102EE00013A000F02BF8F6B1BCB91CE00A20FFF7E4
:102EF000A9FE2888000410D57EB131460E48FDF7A2
:102F00004DF930B128880C49C0F30E0001F800805B
:102F100007E0288820F400402880641E2404240C44
:102F2000E4D104B901273846BDE8F0811C00002037
:102F300025730D0A00000000F40100200FB438B51D
:102F400005AA0E480499FEF707FF002000900B48E1
:102F5000FDF736F985B200200949084B094C09688C
:102F600007E00A68D2431206FBD41A5C2260401CB8
:102F700080B2A842F5D338BC5DF814FBDC05002014
:102F80009800002004440040164A10680069C007F9
:102F900027D01549488810B1401E48801DE0088898
:102FA000D8B1030419D440F4004008800F49C86B1D
:102FB0000068036823F001030360CB6B4FF47A7061
:102FC0001B685860C86B0068016841F0010101602E
:102FD0000748016821F00101016011686FF00100EC
:102FE00008617047500000201C000020980000205D
:102FF0000008004018B50D4A10680168C943C906A9
:1030000013D40168406800900949088820B9094B29
:103010001C6844F001041C6002234B80D26B1268D0
:103020005268C2F57A721044088018BD98000020DA
:103030001C0000200008004004490A685206FCD524
:10304000024AC1B2121D11607047000000480040E2
:10305000FDF7DEFDFEF73CFCFEF742FBFEF732FB20
:10306000FEF7B2FBFEF7CAFBFEF77AFBFEF760FC49
:10307000FEF766FCFCE70000002805D003498968DC
:10308000411A002000F014B8704700003000002002
:1030900010B50146002000F055F8411C03D003494B
:1030A0008968084410BD002010BD000030000020D9
:1030B00070B5134A13181B7E002B12D0114B53F816
:1030C00020308B421AD90F4B083B53F82030B1FB0C
:1030D000F3F102EB8002106930F811300020002477
:1030E00008E011688847012070BD15690E1825F8A1
:1030F0001640401C9842F8DB002070BD022070BDD5
:1031000030000020E442000870B504460B480C4E25
:10311000002150F8240006EB84054200286900F0E5
:1031200099F806480021103050F82420A86800F0D3
:1031300091F801203119087670BD0000D4420008D2
:10314000300000202DE9F04105460F460024DFF84D
:10315000888008EB0500007E002803D1D8F8001015
:10316000284688474FF0FF32FFB11C4E56F8250025
:10317000B7FBF0F3B7FBF0F100FB117000B15B1C83
:103180001648083850F82510491E002921DB08EBA5
:103190008507386930F811C0BCF1000F08D0002451
:1031A0009C4213D1002298B20AE01046BDE8F0819B
:1031B000641CF5E73C6901EB020C24F81C00521C6E
:1031C0009A42F7D356F825004843EFE7491E0029F5
:1031D000E0DA1046EAE7000030000020DC42000898
:1031E00010B5002200210A4B0A4C53F8203004EBA2
:1031F000800005E0046934F8114004B1521C491CF8
:103200008B42F7D864204243B2FBF3F0C0B210BD4A
:10321000D442000830000020002906D0034A02EB07
:1032200080029268891AFFF743BF70473000002080
:1032300010B504462046FFF785FF411C05D0044920
:1032400001EB84018968084410BD002010BD000016
:103250003000002001E000F8011B521E531CFAD17F
:10326000704700002DE9F04107460878234E5B289F
:1032700003D0B1600020BDE8F0810520F860481C53
:1032800000F0DEFF044620785D2811D0FFF7C4FA75
:103290000546B86070B1204600F0D2FF01462846CE
:1032A00000F084FA00F0CCFF0446200004D016E0C1
:1032B000601CE0E70020DEE70020DCE7FFF7ACFA67
:1032C000B0B1286045600546601C00F0B9FF0146BA
:1032D000284600F06BFA00F0B3FF044654B12078A2
:1032E0002C28EBD020785D2806D0B4600020C2E7FF
:1032F0000020C0E70020BEE7601CBCE724000020DF
:103300000178A1F13002092A01D811460AE0A1F1A1
:103310004102052A01D8373904E0A1F16102052AEA
:103320000AD857390A01401C0178A1F13003092B52
:1033300004D8303A11440EE000207047A1F1410357
:10334000052B02D8373A114405E0A1F16103052BA2
:103350000BD8573A11440A01401C0178A1F13003FF
:10336000092B04D8303A11440EE000207047A1F137
:103370004103052B02D8373A114405E0A1F161035E
:10338000052B0AD8573A114409014078A0F13002C0
:10339000092A04D830390844704700207047A0F14A
:1033A0004102052A02D8373908447047A0F161026A
:1033B000052A02D85739084470470020704700009A
:1033C0002DE9F34F85B08A4600242546594900204F
:1033D000CDE90201002637468346012001909AF884
:1033E00000002D2805D154490020CDE902010AF141
:1033F000010A9AF80000302801D10AF1010A9AF86E
:1034000000003138082817D89AF800003038FDF746
:1034100006F8804689460022484B20462946FCF79C
:103420008CFF42464B46FCF7E1FE04460D461AF877
:10343000010F30380928E7D99AF800002E2827D143
:103440009AF80100302823D3392821D80AF1010A3B
:103450009AF800003038FCF7E2FF804689460022E7
:10346000364B20462946FCF768FF42464B46FCF7A0
:10347000BDFE04460D4600222E4B30463946FCF771
:1034800056FF06460F461AF8010F30380928DFD9D3
:103490009AF80000652801D045281DD11AF8010FBF
:1034A0002B2802D02D2803D010E00AF1010A0DE0EC
:1034B0004FF0FF3001900AF1010A07E00BEB8B019E
:1034C00000EB410B0AF1010AABF1300B9AF8000056
:1034D000A0F130010929F1D901980BFB00F0FCF7AC
:1034E0009EFF32463B46FCF781FE02460B4600201B
:1034F000124900F0B9F906460F46DDE902012246FD
:103500002B46FCF71AFF32463B46FCF716FF0446F3
:103510000D460598C0E9064520462946FCF790FF70
:103520000599486105980321C16007B05046BDE880
:10353000F08F00000000F03F0000F0BF00002440CA
:103540002DE9F04107460878384E7B2803D0B1605A
:103550000020BDE8F0810620F860481C00F070FEF5
:10356000054628787D2818D0FFF756F90446B8603C
:10357000A8B1284600F064FE0146204600F058F845
:1035800000F05EFE68B121692162002727610178A1
:103590003A2908D0B0600020DBE7681CD9E700209A
:1035A000D7E70020D5E7401C00F04AFE0146204640
:1035B00000F0FCF800F044FE0546280028D1C8E7DA
:1035C000FFF72AF9A8B1206044600446681C00F0A7
:1035D00037FE0146204600F02BF800F031FE50B1D6
:1035E00021692162276101783A2906D0B060002064
:1035F000AFE70020ADE70020ABE7401C00F020FE65
:103600000146204600F0D2F800F01AFE054645B10A
:1036100028782C28D4D028787D2804D0B5600020C4
:1036200097E7002095E7681C93E70000240000203E
:103630002DE9F04780460D466C1C00202A78594938
:10364000222A06D08D60BDE8F087641C5C2A00D178
:10365000641C2278222A02D00AB1401CF5D10968E4
:10366000401C88470746380004D0681C3C464FF48D
:1036700080691AE00020E6E75C2903D004F8011B0A
:10368000401C12E0461C3078722825D006DC6228E7
:1036900016D0662818D06E2804D119E074281FD0DF
:1036A000752821D004F8010B701C0178222901D063
:1036B0000029E1D100212170017822296AD06AE035
:1036C000082004F8010BEFE70C2004F8010BEBE7EE
:1036D0000A2004F8010BE7E70D2004F8010BE3E7EB
:1036E000092004F8010BDFE7701CFFF709FE05460F
:1036F000361DA5F55C404845D6D3002DD4D0A5F5A0
:103700005840484513D270785C28CDD1B0787528E0
:10371000CAD1F01CFFF7F4FDB61DA0F55C41494588
:10372000C2D2C5F3090161F39F2000F58035042161
:10373000802D01D2012108E0B5F5006F01D20221F0
:1037400003E0B5F5803F00D20321601801291AD0AB
:10375000022911D0032908D0042919D105F0BF028C
:1037600042F0800200F8012DAD0905F0BF0242F0E1
:10377000800200F8012DAD0905F0BF0242F0800281
:1037800000F8012DAD09084A525C2A4300F8012DCA
:10379000441889E7401CC8F810700421C8F80C10C0
:1037A00051E7000024000020CA42000870B5054619
:1037B0000C46002C20D0042224A12046FCF707FD53
:1037C000E0B1052223A12046FCF701FDD0B104227F
:1037D00022A12046FCF7FBFCC0B1207822281AD099
:1037E0002D2803D0A0F1300109291AD821462846F6
:1037F000BDE87040FFF7E4BD002070BD0220E86026
:10380000201D70BD0020E860601D70BD0120E860D3
:103810006861201D70BD21462846BDE87040FFF755
:1038200007BF5B2805D07B2809D00E4884600020A4
:1038300070BD21462846BDE87040FFF713BD214604
:103840002846BDE87040FFF77BBE00006E756C6CCB
:103850000000000066616C7365000000747275659D
:1038600000000000240000202DE9F04D1D460C460C
:1038700098B0174621F0004123F00043002814BF00
:103880004FF0010C4FF0000C0CEB440CFE4A0CEB1B
:1038900002064FEA620C66452BD33E0018BF012694
:1038A00006EB45061644F94A964222D3F84A53EAF3
:1038B000070C02D0944205D148B918B00020114637
:1038C000BDE8F08D002808BF4FF0000C01D04FF08C
:1038D000010C0CEB440212F5001F0AD8002F14BF94
:1038E0004FF0010C4FF0000C0CEB450212F5001FDD
:1038F00007D918B03A462B462146BDE8F04DFEF7F1
:10390000BFBA0022DFF88CA3002CB8BF534526DADB
:10391000DFF884C36345A8BF022220DADFF870C352
:103920009C451CDCDFF874C30CEB235CBCF1140F6A
:1039300008DDCCF1340627FA06FC0CFA06F6BE4286
:103940000DD108E05FB9CCF1140623FA06FC0CFA9D
:1039500006F69E4203D10CF00102C2F1020251EAC6
:10396000000C19D1002D17DA002C18BF022A01D043
:10397000012A07D00220FEF7ABFA18B0BDE8F04DDF
:10398000FEF776BA0220FEF7A3FAFEF771FA18B036
:1039900081F00041BDE8F08DB7F1000C6CD15345CA
:1039A00025D104F1804212F5801201BF00280020C9
:1039B000B74918B008BFBDE8F08DB548884207DCAC
:1039C000002DA1BF6046294618B0BDE8F08D07E084
:1039D000281E05DA80F0004118B06046BDE8F08D81
:1039E000AF497944D1E9000118B0BDE8F08DDFF8A6
:1039F000A0C2634525D1002D1FDA19B1514512D15E
:103A0000D8B909E0002840F0EC82A24A214618B05B
:103A100062F31E01BDE8F08D0020214618B060F36E
:103A20001E01BDE8F08D08DA18B02346BDE8F04D60
:103A3000024600206146FCF700BE18B02146BDE8F2
:103A4000F08D514518DAB5F1804F0DD0A5F1005C2D
:103A5000BCF1FF5C10D1B4F1000C0DDB18B0614675
:103A6000BDE8F04D00F0F6BB234618B00246BDE8B5
:103A7000F04D1946FCF761BC060024F0004C3BD128
:103A8000D9B1514533D1002C06DD002DA1BF002056
:103A9000514618B0BDE8F08D002C01DD002D1BDB78
:103AA000002C13DA002D11DB012A4FF0000014BFA7
:103AB00078497C4918B0BDE8F08D022A18BF002C67
:103AC0000AD0012A08D1002C06DA0AE0002CB8BF7F
:103AD000002D11DA012A04D0002018B00146BDE8FB
:103AE000F08D18B000204FF00041BDE8F08DA1F13D
:103AF0004050B0F17F601AD0012000EBE47050EA32
:103B0000020421D0624C521E4FF0000B104304BF40
:103B10004FF0000B644C654883427CDD644A654885
:103B200093421FDD884217DB002D25DB37E0002C98
:103B300000DA4AB1022A0CBF01204FF0FF3018B062
:103B4000BDE8F04DFCF76BBC0120FEF7C1F918B0E1
:103B5000BDE8F04DFEF796B94D4A8A4202DC002DD1
:103B60000ADC1CE0814202DA002D18DA04E0484B3E
:103B7000994220DD002D12DD0220FEF7A9F9FEF7A3
:103B800087F905460E460022534658462146FCF763
:103B9000D4FB18B066F31E012846BDE8F08D022064
:103BA000FEF796F9FEF77CF90A46214618B062F353
:103BB0001E01BDE8F08D002230466146FCF7B7FBE0
:103BC00080460E466FF00102FCF7A6FD4FF055321D
:103BD000394BFCF7AFFB42463346FCF7AEFB002205
:103BE000364BFCF7A7FB824642463346049110460B
:103BF0001946FCF7A2FB5246049BFCF79EFB8A4643
:103C000000904FF0C0422E4B40463146FCF795FBEA
:103C10002C4A2B4B00E027E0CDE9060151460098E5
:103C2000FCF78BFB82460191274A284B40463146E0
:103C3000FCF783FB5246019BFCF779FB82460B465F
:103C400002460591DDE90601FCF7D0FADDE906231D
:103C5000002688463046FCF76AFB5246059BFCF777
:103C600069FB024600F07EB90020B1F5801F07DA3B
:103C7000352230466146FCF74FFD06466FF03400B2
:103C800000EB215024E00000FFFF1F00FFFF0F00AA
:103C90000000F03F0000F07F0000404301FCFFFF08
:103CA000DAAC00000000F0FF0000F0BF0000E041CF
:103CB0000000F043FFFFEF3F5555D53F0000E03FC8
:103CC0004715F73FFE822B6544DF5DF80BAE543E8F
:103CD000A0F2FF300190C1F3130040F07F6141F08A
:103CE00040510291FE498842D8BF002004DDFD49C1
:103CF0008142C8BF012001DD0D9008E000200D9039
:103D00000198401C01900298A0F580100290029941
:103D1000F54878440B910D9900EBC100D0E90023E0
:103D20000F9330460A920B99FCF701FBCDE906018F
:103D3000DDE90A2130460F9BFCF758FA02460B4694
:103D40000020EA49FCF779FC059102460B460090F9
:103D5000DDE90601FCF7F1FA1490E5488A464FF0D8
:103D6000000878440299006812904FF0005040EA31
:103D700061010D980F9B01EB804000F50021099136
:103D80000A9A1298FCF7D3FA32460B9BFCF7D2FA48
:103D900042465346FCF7D1FA064602914046514648
:103DA000099B129AFCF7C9FADDE90623FCF7C2FA6F
:103DB0003246029BFCF7BBFA059B009AFCF7BDFA62
:103DC0000091149A0490534610461946FCF7B5FA30
:103DD00006460246C7480B46029106217844FDF785
:103DE000F1FFCDE90510029B324610461946FCF75B
:103DF000A4FADDE90532FCF7A0FA05910646534620
:103E000040461946149AFCF7F1F9009B049AFCF716
:103E100094FA3246059BFCF7E9F9CDE905104246D4
:103E2000534610461946FCF788FA0022B24B02911D
:103E30000A90FCF7DBF9DDE90532FCF7D7F90E460D
:103E40004246AD4B4046FCF772FA029B0A9AFCF7D9
:103E50006EFADDE90532FCF76DFA424602910A90EE
:103E6000334610465146FCF768FACDE90601534641
:103E7000149A02990A98FCF760FA8A46029033462F
:103E8000424600990498FCF758FA5346029AFCF708
:103E9000ADF982460B4602460591DDE90601FCF7C5
:103EA000A5F9DDE90623002088460646FCF73FFA1F
:103EB0005246059BFCF73EFA824609914FF060425C
:103EC0008E4B30464146FCF738FA049006918C4AF6
:103ED0008A4B50460999FCF730FA82460291894A8A
:103EE000894B30464146FCF728FA5246029BFCF7C4
:103EF0007DF9864B7B440D9A03EBC203D3E9002383
:103F0000FCF774F90E9007910198FCF788FA059177
:103F1000DDE9061382460E9A0498FCF767F97C4A9D
:103F20007A440D9B02EBC303D3E900230093029272
:103F3000FCF75CF95246059BFCF758F900268846C9
:103F400052463046059BFCF7F2F9009B029AFCF7BB
:103F5000EEF9069B049AFCF7EAF9079B0E9AFCF728
:103F6000E9F9024600200B46029038462946FCF744
:103F7000E4F9824601912B4638461946029AFCF72D
:103F8000D6F932464346FCF7D8F95246019BFCF776
:103F90002DF907468A463246434629460298FCF7E1
:103FA000CCF905460E463A465346FCF71FF9594AE6
:103FB0008846914221DBA8EB020353EA000210D1AC
:103FC0002A463346FCF7B3F9CDE90401524A534B74
:103FD00038465146FCF70AF9DDE90423FCF750FAAC
:103FE00021D20220FDF774FFFDF752FF0A46214659
:103FF00018B062F31E01BDE8F08D494B28F0004275
:104000009A4210D3474A08EB020353EA00027FF4B6
:10401000C6AD2A463346FCF78AF93A465346FCF7C2
:104020002FFA7FF6BCAD0022019228F000403E49F5
:104030003E4A01EB2051824223DA481C4FF48011A2
:1040400021FA00F040443A4AC0F30A517A44394B0D
:10405000A1F2FF31CB4020EA0303C0F3130040F488
:104060008010C1F11401C84012680190B8F1000F2E
:10407000BCBF4042019028463146FCF758F905463E
:104080000E462A46334638465146FCF7AFF84FF005
:1040900000084246284B40460591FCF74EF9CDE911
:1040A0000601264A264B40460599FCF746F9009141
:1040B00002902A46334640460599FCF738F93A46BD
:1040C0005346FCF737F91F4A1F4BFCF736F9009BA4
:1040D000029AFCF78BF80746884602460B4635E005
:1040E0008E9803007AB60B0022A900000000F03F72
:1040F0005AA9000088A800000000084009C7EE3F48
:10410000FD033ADCF5015B14E02F3EBE60A7000022
:1041100024A7000000009040FE822B654715973CC5
:1041200000CC904000346F3F01FCFFFF0000E03FF7
:1041300070A60000FFFF0F00432EE63F396CA80C6D
:10414000615C20BEEF39FAFE422EE63FDDE9060152
:10415000FCF74CF8DDE9062305460E46FCF7E7F8C8
:104160003A464346FCF7E6F80F462A4633460090A7
:1041700010461946FCF7E1F8824602462E4888466A
:104180000B4605217844FDF71DFE52464346FCF7D9
:10419000D4F82A463346FCF7CDF880468A463B469B
:1041A00028463146009AFCF7C8F83B46009AFCF7CF
:1041B0001DF80691009000224FF080434046514682
:1041C000FCF7B5F80F460C90424653462846314658
:1041D000FCF7B3F83B460C9AFCF72FFA069B009AC3
:1041E000FCF7A5F82A463346FCF7A1F80022134B4A
:1041F000FCF7A0F8054601980E4601EB00510815A2
:10420000002810DC28463146019AFCF785FAFDF7B4
:10421000B5FD042808BFFDF743FE28463146019A44
:10422000FCF77AFA05460B4618B02A46584621464E
:10423000BDE8F04DFCF781B810A500000000F03F8C
:1042400000E0401C002804D00178002901D020297A
:10425000F7D970472DE9F04106460F46FCF79EFA64
:10426000041E0D4618BF0120284320F00040C0F175
:104270007F6000F1E040C00F0ED0301C18BF01205D
:10428000384320F00040C0F17F6000F1E040C00FF3
:1042900004BF0120FDF71CFE20462946BDE8F08141
:1042A000010202030405060708090A0B0C0D0E0F94
:1042B00010100000000000000000010203040607C7
:1042C000080900000000010203040000C0E0F0F84B
:1042D000FC000000800100000078000020000000C9
:1042E000200000000030000000000F00BBD2A1B68B
:1042F0004081DFC6418142814381F2CDC9D5FDC8ED
:10430000CFC9C2CFA2D8BBB2EBD34481A4D8F3B3F8
:104310004581A8D7D2C7A7D8C0CA4681F0C7FBB18C
:10432000B5D2D4B4ABB6BFCBA9D8478148814981B7
:10433000AAB64A81BDC1CFD14B81A5C9ADD84C81A8
:10434000F6B8BED1DCE3D0D64D814E81E1B74F81C6
:10435000AEB45081D9C15181BCD85281E8CDA4B549
:10436000AACEF7D65381F6C0D9BEAFD854815581B5
:104370005681CBC45781C3BE5881B1D8B4C3E5D2EE
:104380005981AED6DACEA7D5F5BAA6B7D6C05A812E
:10439000B9C6D2C5C7C75B81D4B95C81CBB3D2D211
:1043A0005D815E81BFD8C5BEF2C6B2D2B0CFE7CFC5
:1043B0005F81608161816281E9CA63816481C0D863
:1043C000658166816781688169816A81F2C2D2C232
:1043D0006B81E9C86C816D816E816F8170817181A3
:1043E0007281738174817581ACC7768177817881A0
:1043F00079817A817B817C81CBC17D81E8D3F9D5BC
:104400007E81C2CAFEB6A1D8DAD3F7BF8081C6D4F6
:10441000A5BBC1D8E5CEAEBE81818281A8D88381FB
:10442000C7D1A9D0848185818681BDD8EFD9F6CD49
:10443000BABF8781BBBDA5BAE0D2FAB2E0BAB6C4B2
:104440008881EDCFA9BEA4CDC1C189818A818B812C
:10445000D7C7F1D98C81F4D98D818E818F819081DC
:10446000CBC8E9D8918192819381DAD2B2CACAC805
:10447000ECD8EAD8C6D8F6BDCDC6F0B39481EBD857
:10448000F1BDE9BD9581D4C8D3B496819781D8C2D6
:104490009881D6B2D0D7CBCAFBCBCCD5B6B8C9CFD2
:1044A00099819A819B81DAD9F0D8AAC79C81EED8EC
:1044B0009D81FAB4EEC1D4D29E819F81EDD8A081B6
:1044C000C7D2EFD8C7C3A181A281A381F6D1A481AD
:1044D000D9D6F2D8A581F5D8FEBCDBBCA681A781D0
:1044E000A881CEC8A981DDB7AA81C2B7AB81F3C6C6
:1044F000AC81AD81AE81AF81B081B181B281F8D89C
:10450000C1D2B381B481E9CEBFBCFCB7A5B7DDD0C1
:10451000B581B681B781B881B981DAD6C5D3EFBB91
:10452000E1BBF1D8BA81BB81A1C9B0CEABB4BC812B
:10453000F3D8BD81CBC9F6D8D7C2F7D8BE81BF8129
:10454000B1CEF9D8C081C181C281AEB2C0B9C38138
:10455000A3D9C481E9B0C581E6C1C681ECC9C781D0
:10456000C5CBC881C6CBA4D9C981CA81CB81CC8136
:10457000CD81E8B5CE81CF81ABB5D081D181D2815B
:10458000D381D481D581BBCECDB5A1D7F4D7D3D338
:10459000D681E5CCD781CEBAD881A2D9DCD9E0D3F7
:1045A000FDD8F0B7F7D7FED8FAD8A1D9E3C4D9819E
:1045B000DA81B6D3F4D8DDD9DB81FBD8DC81E5C55F
:1045C000DD81DE81D0C0DF81E081F0D1DBB0E1812F
:1045D000E281D1BCA6D9E381A5D9E481E581E68158
:1045E000E781ACD9AED9E881ABD9B9CAE981EA8112
:1045F000EB81A9D9B6D6EC81ED81EE81DEB3A8D9E5
:10460000EF81FDC0F081CCCAF181AAD9F281A7D98E
:10461000F381F481B0D9F581F681B1B6F781F881E3
:10462000F981A9B9FA81C0D2FB81FC81C0CFFD819B
:10463000FE81C2C24082C4BDECD5E0B2C8C7EBBFA8
:10464000ADD94182AFD94282EACEEEBA43824482EA
:10465000458246824782D6C7488249824A824B8237
:104660004C824D824E824F825082E3B151825282FF
:104670005382D9B4EDB6B4D954825582568257824A
:10468000A1BF588259825A82DED9CEC7FEC0B8D99E
:104690005B825C825D825E825F82D7CBFDB7608287
:1046A000B5D96182B7D9A3B1E1D3B9D96282C5D0F6
:1046B0006382B6D964826582B1D96682B2D9A9C152
:1046C000B3D967826882F3BCDED0A9B86982E3BE41
:1046D0006A82BDD96B826C826D826E82BAD96F821A
:1046E000B3B0708271827282C2D973827482758211
:1046F00076827782788279827A827B827C827D82DE
:104700007E828082C4D9B6B18182BFD982828382FF
:10471000B9B58482F3BE858286828782C8CCF2BA1C
:10472000D0D28882C3D989828A82E8BD8B82ABB31A
:104730008C828D828E82C5D9EBBE8F82C6D9BBD9C1
:10474000DFC49082BED9C1D9C0D9918292829382AE
:104750009482958296829782988299829A829B828D
:10476000AED59C82B5D69D82E3C79E829F82A082F1
:10477000A182C8D9A282A382A482D9BCCAD9A582A7
:10478000A682A782BCD9A882CBD9ABC6A982AA82AD
:10479000AB82AC82AD82C9D9AE82AF82B082B18227
:1047A000F6D7B282A3CDB382B482B582B682B78285
:1047B000B882B982BA82A1BDBB82BC82BD82BE82F0
:1047C000BF82C082CCD9C182C282C382C482C58268
:1047D000C682C782C882C982BCC5B5CDCA82CB8217
:1047E000CC82CDD9CD82CE82C7D9A5B3FEBFCF8230
:1047F000D082D182D282B5B8D382D482FCC0D58295
:10480000D682D782D882F8B0D982DA82DB82DC8283
:10481000DD82DE82DF82E082E182E282E382E48284
:10482000E582E682E782E882E982EA82EB82EC8234
:10483000ED82F6B4EE82CED9EF82CFD9A2B4D0D930
:10484000F082F182DFB4F282F382F482F582F682A2
:10485000C1B0F782F882F982FA82FB82FC82FD8283
:10486000D1D9B5C9FE8240834183428343834483C7
:10487000458346834783488349834A834B834C83DC
:104880004D834E834F8350835183F1CF52835383A3
:104890005483558356835783D2D9588359835A8377
:1048A000C5C15B835C835D835E835F83608361835B
:1048B0006283638364836583D6D9AEC96683678365
:1048C00068836983D5D9D4D9D7D96A836B836C833C
:1048D0006D83DBCB6E83A9BD6F837083718372831D
:1048E0007383A7C67483758376837783788379838C
:1048F0007A837B837C837D83D3D9D8D97E8380835D
:104900008183D9D9828383838483858386838783C4
:10491000E5C8888389838A838B838C838D838E8388
:104920008F83908391839283938394839583DCC058
:1049300096839783988399839A839B839C839D8393
:104940009E839F83A083A183A283A383A483A58343
:10495000A683A783A883A983AA83AB83AC83AD83F3
:10496000AE83AF83B083B183B283F9B6A3D8CAD480
:10497000B383AAD4D6D0E4B3D7D5B483C8CFE2B931
:10498000B583CBBFB683E2C3B783B883B983D2B64E
:10499000BA83BB83C3CDEED9F0D9BC83BD83BE83BC
:1049A000B3B5BF83B5B6C083C183C283C383C48399
:1049B000A4BEC583C683EBC8C783C883ABC8C983FD
:1049C000CA83CBB0ABB9F9C1E2D9CB83BCC0B2B911
:1049D000CC83D8B9CBD0F8B1E4C6DFBEE4B5C8D734
:1049E000CD83F8D1E6BCDECACE83CF83BDBCE6D989
:1049F000E7D8D083D183DAC4D283D383D4B8BDC8F7
:104A0000D483D583E1B2D9D4D683D783D883D9834D
:104A1000B0C3DA83DB83E1C3A2DADFC8DC83B4D0BE
:104A2000DD83FCBEA9C5DE83DF83E083DAB9E183E1
:104A3000A3DAE283A9D4A4DAE383E483E583E683FB
:104A4000E783FBD9ACB6E883E983EBB7F9B1FCD9CE
:104A5000E5B3F6BEEA83F6BFB1D2E4C0EB83EC83E4
:104A6000ED83B3B6FED9FDD9EE83EF83BBBEF083F1
:104A7000F183F283E0C6F383BCD7A1DAF483B9C132
:104A8000F583F2B5E8C1F683F783F5BCF883D5B4B6
:104A9000F983FA83FB83FC83FD83FE834084418496
:104AA0004284DDC14384FDC444844584B8BCB2B7AC
:104AB00046844784EFB7488449844A844B844C84B5
:104AC0004D84ECD94E84BEC64F84ADBFCBBB508461
:104AD0005184CAB55284C9DBD7D05384B9CDBCB098
:104AE000F6B3F7BBCADBAFBA5484E4D4B6B5F3B5BA
:104AF000D6D8D0C855845684D6B7D0C7D7D857840F
:104B0000AFBF58845984BBDBD8D85A845B84CCD0DF
:104B1000AEBB5C845D845E84BEEBD0C1F5C1F2D4D3
:104B2000D5B8B4B45F84F5B360846184BEC96284CF
:104B300063846484D0C5658466846784D9C5FBC0FA
:104B40006884F0B16984D9D8CEB96A84BDB56B8464
:104B50006C84DAD86D846E84C6D6A2CBAFC8B2C9D5
:104B6000CCB4CCBF6F84F4B97084DBD8DCD8E7B6A2
:104B7000C1BCEACC71847284738474847584768435
:104B8000F7CF7784DDD8B0C778847984D0B9A3BD56
:104B90007A847B84DECC7C84CAC67D847E848084D7
:104BA00081848284E0D88384DED884848584DFD8BD
:104BB000868487848884FEB08984E7BE8A84A3CAF9
:104BC000F4BC8B848C848D848E84B1B88F84908463
:104BD000EEB8918492849384948495849684978487
:104BE000988499849A84E2D89B84CBBD9C84E4D831
:104BF000E3D89D849E849F84A084A184FCC5A28464
:104C0000A384A484A584A684A784A884E5D8A984C1
:104C1000AA84E6D8AB84AC84AD84AE84AF84B0847F
:104C2000B184A6C1B284B0C8ECB0A6B9D3BCF1CEF1
:104C3000BDDBD3C1B384B484B584B684AFB6FAD631
:104C4000ACC5D9BDBEDBBFDBB784B884B984F8C0BE
:104C5000A2BECDC0BA84BB84BC84BD84BE84BF84E4
:104C6000C084C184C284C384C0DBC6CAC484C58472
:104C7000C684AAB2C784C884C984C2D3CA84E3C321
:104C8000CB84ABD1CC84CD84CE84CF84C2DBD08422
:104C9000D5C0D184D284D384C3DBD484B1BFD584BE
:104CA000D684D784D884D984DA84BCC4DB84DC84F9
:104CB000DD84DE84DAC7DF84E084E184E284E38497
:104CC000E484E584E684E784E884E984C4DBEA8458
:104CD000EB84EC84ED84EE84EF84F084F184E8D9F5
:104CE000D7C9F284F384F484B4B9F0CEC8D4F5847F
:104CF000F684F784F884FCB0D2B4F984D9D0FA846D
:104D0000FB84FC84FD84E9D9FE84CBDEEBD94085AD
:104D1000418542854385B0D8AFBBB1B14485D7B397
:104D2000CED845854685D1D447854885B3BDEFBFEC
:104D30004985BBCF4A854B85D0D84C854D854E855E
:104D4000CBB74F8550855185D1D852855385548531
:104D5000558556855785588559855A855B85A5C6DD
:104D6000F8C7BDD25C855D85D2D8E4C45E85AECA85
:104D70005F85A7C76085A6D86185FDC9E7CEDCBB86
:104D8000EBB0628563856485AABBADD06585B0B1A3
:104D9000E4D7BFD76685A5B5F4C2CFC4678568855B
:104DA000A9B26985B7B26A85E5B1B2DFBCD5A8BF43
:104DB000ACC2D5D8B1C26B85D4D8D4CE6C85E0DA7C
:104DC0006D85C0CE6E856F85B4D8AEC3A1D3A3CE9A
:104DD0007085B4BCB4C8D1C27185EDBEB6D0728541
:104DE000E1DA7385748575857685E4C7778578857E
:104DF000A7B37985F2B6FCCCFAC07A857B85F7C07B
:104E00007C85B9D1E1D1C7D87D857E8580858185B6
:104E1000828583858485DEB285858685E5C0878524
:104E2000F1BA88858985C8D88A85ADD48B858C856B
:104E3000E1CFC9D88D85CAD8C3CF8E85F8B3C7BE98
:104E40008F85908591859285CBD89385948595851E
:104E50009685978598859985CCDB9A859B859C85D9
:104E60009D85A5C89E859F85A085D8CFA185FEC8B4
:104E7000CEB2A285A385A485A585A685D6D3E6B2A4
:104E8000B0BCD1D3ABCBB4B7A785A885A985A2B751
:104E9000AA85AB85E5CAAC85A1C8DCCAE4B1F0D06F
:104EA000AD85D1C5AE85AF85B085C5DBFEB5B18515
:104EB000B285DABFC5B9E4BEEDC1B385B6DFB5DFF3
:104EC000BBD6D0BDD9D5C8B0A3B6C9BFA8CCB3DFB7
:104ED000B7CAD2D3B485CFD8B6D2C5BABECBBECCB2
:104EE000B585B7DFF0B5B4DFB685B785B885F5D33E
:104EF000B985D4B3F7B8BA85BADFBB85CFBAAABC37
:104F0000F5B5BC85ACCDFBC3F3BAF4C0C2CDF2CFCE
:104F1000B8DFC5CFBD85C0C2B9DFF0C2BE85BF85D1
:104F2000C085FDBEC185DFC1CCCDF7D2CDB7C1DF15
:104F3000C285C4DFC385C485F1B7C9B0D6B6D4B7BE
:104F4000C585ACBAFDCCD4BFB1CBF4C6C685A8D656
:104F5000C5DFC785E2CEB3B3C885C985FCCEB5B47D
:104F6000CA85C7CEF0BACB85E1CECC85BDD1CD8583
:104F7000CE85C0DFCF85D085F4B4D185CAB3D285C4
:104F8000E6B8BBDFD385D485D585D685C5C4D7859E
:104F9000BCDFBDDFBEDFBBC5BFDFC2DFB1D4C3DF57
:104FA000D885BAC7D8CED985DA85DB85DC85DD859D
:104FB000D8C4DE85CADFDF85CFDFE085DCD6E185BA
:104FC000E285E385E485E585E685E785E885C9DF53
:104FD000DADFB6CEE985C7BACEDFC8DFDEC5EA853F
:104FE000EB85EBC9F4BAFCC3EC85ED85D7BEEE8545
:104FF000C6DFEF85CDDFF085D8C5F185F285F38575
:10500000F485A6D5CDBAF585CCBEBDD3C0B8F6859E
:10501000E4D6F785C7DFBEB9A7BFF885F985FCC11F
:10502000CBDFCCDFFA85D0DFFB85FC85FD85FE85F7
:105030004086DBDFE5DF4186D7DFD6DFC9D7E3DF98
:10504000E4DFEBE5A7D2D2DF4286A9BF4386DBD4FB
:105050004486C8BFD4DF458646864786CCCF48867F
:105060004986DDDF4A86CAD14B86DEDFA7B0B7C6E8
:10507000D3DF4C86E5BA4D86DFB6DBCDFEB9D5D49D
:105080004E864F86DFDFECCFA5B0E7DFD1DFC6D19C
:10509000D5DFD8DFD9DFDCDF5086A9BB5186E0DF62
:1050A000E1DF5286E2DFE6DFE8DFB4D353865486E1
:1050B000558656865786E7B8B6C5EADFDAC9A8C16D
:1050C000C4C458865986DEBFF8CF5A865B865C8694
:1050D000DCD5EEDF5D865E865F86608661866286F1
:1050E000B8B26386DFBAECDF6486C1DB6586E4D1E3
:1050F0006686678668866986F4CBBDB46A86A6B084
:105100006B866C866D866E866F86F1DFC6CCF2DFAD
:1051100070867186EDDF72867386748675867686F4
:105120007786E9DF788679867A867B86EBDF7C86F0
:10513000EFDFF0DFBDBB7D867E86F3DF8086818674
:10514000F4DF8286A3BB8386DBCAA8CEA7E0AAB31E
:105150008486A6E0858686868786A1E088868986FD
:105160008A868B86FEDF8C86D9CDFCDF8D86FADFC2
:105170008E86D0BFC4D78F86CCC990869186F8DF43
:10518000A1B092869386948695869686FDDF978653
:10519000988699869A86FBDFA2E09B869C869D86F0
:1051A0009E869F86A8E0A086A186A286A386C8B711
:1051B000A486A586A1C6B6C9B2C0F5DFA686A78615
:1051C000BEC5A886C4D8F9DFF6C4A986AA86AB8670
:1051D000AC86AD86AE86A3E0A4E0A5E0A5D0AF8600
:1051E000B086B4E0E4CCB186B1E0B286A6BFAFE051
:1051F000B9CEABE0C6C9B386B486AEC0AEE0EDBAF8
:10520000B0BAA9E0B586B686B786F6DFB886B3E051
:10521000B986BA86B8E0BB86BC86BD86ADB4B9E0B7
:10522000BE86BF86B2CFC8BAC086B0E0C186C2868D
:10523000C386C486C586C686C786FAD0C886C98690
:10524000CA86CB86CC86CD86CE86CF86D086ACE08D
:10525000D186FBD4D286F7DFD386E7C5D486ADE00E
:10526000D586F7D3D686B6E0B7E0D786D886D98676
:10527000DA86DB86C4E0E1D0DC86DD86DE86BCE053
:10528000DF86E086C9E0CAE0E186E286E386BEE02A
:10529000AAE0A4C9C1E0E486B2E0E586E686E78636
:1052A000E886E986C8CAC3E0EA86B5E0EB86CBCEDD
:1052B000EC86C3CBCDE0C6E0C2E0ED86CBE0EE8667
:1052C000BAE0BFE0C0E0EF86F086C5E0F186F28686
:1052D000C7E0C8E0F386CCE0F486BBE0F586F6864E
:1052E000F786F886F986D4CBD5E0FA86D6E0D2E008
:1052F000FB86FC86FD86FE8640874187D0E0CEBCDB
:1053000042874387D1E04487C2B8C5D845874687DE
:105310004787488749874A874B874C87EAD04D871C
:105320004E87EFC24F875087CFE0BDE0518752874D
:105330005387D4E0D3E054875587D7E05687578703
:1053400058875987DCE0D8E05A875B875C87F6D6B8
:10535000B0B35D87ECD75E87BBCB5F876087DAE051
:105360006187FBCE628763876487D9BA6587668762
:105370006787688769876A876B876C876D876E87A1
:105380006F877087E1E0DDE0ADD271877287738748
:1053900074877587E2E076877787DBE0D9E0DFE026
:1053A00078877987E0E07A877B877C877D877E872F
:1053B000DEE08087E4E0818782878387F7C6ACD808
:1053C000EBD4E6E0C9CA8487858786878787E5E0CE
:1053D000888789878A878B87C1B88C878D878E87D6
:1053E0008F87E7E0E8E0908791879287938794879B
:1053F000958796879787E9E0E3E0988799879A876A
:105400009B879C879D879E87BFBAE7CC9F87A08795
:10541000A187EAE0A287A387A487A587A687A78795
:10542000A887A987AA87AB87AC87AD87AE87AF87E8
:10543000B087F9CFB187B287B387B487B587B6870E
:10544000B787B887B987BA87BB87EBE0BC87BD87CA
:10545000BE87BF87C087C187C287C2C8C387C487CA
:10546000C587C687C0BDC787C887C987CA87CB8796
:10547000CC87CD87CE87CF87D087D187D287D38778
:10548000D2C4D487D587D687D787D887D987DA87F4
:10549000DB87DC87ECE0DD87DE87EDE0DF87E08718
:1054A000F4C7C4CBE187EEE0D8BBB6D8F2D2EFE0C8
:1054B000C5CDE287DAB6E387E487E587E687E78745
:1054C000E887F1E0E987B0D4EA87EB87A7C0D1B4D9
:1054D000EC87ED87A7CEF0E0EE87EF87F087F2E06C
:1054E000CCB9F187F287FAB9BCCDF3E0F387F48742
:1054F000F587D4C6F4E0F687B2D4F787A6C8F6E0FD
:10550000F5E0F887F987FA87FB87FC87FD87FE8738
:10551000408841884288438844884588468847882F
:1055200048884988F7E04A884B88C1CD4C884D8827
:105530004E88A5CA4F88508851885288DAD4D7DB64
:10554000D9DB5388D8DBE7B9DCDBDDDBD8B55488A1
:105550005588DADB56885788588859885A88DBDBA3
:10556000A1B3DFDB5B885C88F8BB5D88B7D65E885B
:10557000E0DB5F88608861886288F9BE6388648840
:10558000BBB76588D0DBAECCB2BFB5BBF8D7D3BF55
:1055900066886788688869886A88E9BF6B886C88CC
:1055A000E1BCB3CCDEDBD3B0EBCED8B7B9D7C2C643
:1055B0006D886E88A4C06F88B9CC7088E7DBE1DBAA
:1055C000BAC6E3DB7188E8DB7288F7C57388748834
:1055D0007588EADB76887788E9DBC0BF78887988C8
:1055E0007A88E6DBE5DB7B887C887D887E8880881E
:1055F000B9B4ACC0A2C2E2DBE4DB818882888388D4
:105600008488CDD0EDDB85888688878888888988DE
:10561000DDC0F2DB8A888B888C888D888E888F88A5
:105620009088E2B69188928893889488F3DBD2DBE5
:10563000B8B9ABD4ECDB9588D1BFF0DB9688D1DB71
:105640009788E6B59888EBDBE5BF99889A889B88B0
:10565000EEDB9C88F1DB9D889E889F88F9DBA08823
:10566000A188A288A388A488A588A688A788A888D6
:10567000A1B9A3B0A988AA88AB88AC88AD88AE8848
:10568000AF88F1C2B088B188C7B3EFDBB288B38806
:10569000F8DBB488D2C6F4DBB588B688F5DBF7DB77
:1056A000F6DBB788B888FEDBB988F2D3BAB2BA881D
:1056B000BB88BC88FDDBBD88BE88BF88C088C18828
:1056C000C288C388C488A4DCC588FBDBC688C788B9
:1056D000C888C988FADBCA88CB88CC88FCDBE0C5DF
:1056E000F9BBCD88CE88A3DCCF88D088A5DCD18853
:1056F000C3CCD288D388D488D1B6C0DDD588D6882B
:10570000D788A1DCD888A2DCD988DA88DB88B5C73D
:10571000DC88DD88DE88E9B6DF88E088E188A7DC00
:10572000E288E388E488E588A6DCE688A9DCA4B101
:10573000E788E888CCB5E988EA88EB88EC88ED88CA
:10574000B0BFEE88EF88F088F188F288DFD1F38867
:10575000F488F588F688C2B6F788F888F988FA8858
:10576000FB88FC88FD88FE884089418942894389FD
:1057700044894589A8DC46894789488949894A89F5
:105780004B894C89FACBF3EB4D894E894F89DCCBA1
:1057900050895189FECB528953895489C1CC55898E
:1057A0005689578958895989FBC85A895B895C8908
:1057B0005D895E895F89AADC608961896289638904
:1057C0006489EECCABDC65896689678968896989FB
:1057D0006A896B896C896D896E896F897089718915
:1057E0007289738974897589D3DB7689AFDCACDC07
:1057F0007789B3BE7889FBCA79897A897B89ADDCE0
:105800007C897D897E89808981898289838984894F
:10581000CAC9B9C485898689878988898989BDC7A4
:10582000AEDC8A898B898C89F6D4E6D08D898E8905
:105830008F8990899189928993899489ABC4D5B6CF
:10584000958996899789988999899A899B899C894C
:105850009D899E899F89A089A189A289A389A489FC
:10586000A589A689D4DBA789A889A989AA89DAB1DB
:10587000AB89AC89AD89D5DBAE89AF89B089B189F7
:10588000B289B389B489B589B689B789B889D6DBB5
:10589000B989BA89BB89BEBABC89BD89BE89BF89AD
:1058A000C089C189C289C389C489C589C689C78994
:1058B000C889C989C0C8CA89CB89CC89CD89CE8914
:1058C000CF89BFCAC9C8D089B3D7D189F9C9D2890C
:1058D000D389C7BFD489D589F8BAD689D789BCD22C
:1058E000D889D989DA89DB89DC89DD89DE89DF8994
:1058F000BAE2E089A6B4E189E289B8B1E389E48932
:10590000E589E689E789B4B8E889C4CFE989EA89F5
:10591000EB89EC89E7D9A6CFE2CDED89EE89EDD907
:10592000E0B6EF89B9D2F089F189BBB9F289F38980
:10593000F489F589B9E2B7E2F689F3B4F789ECCCDA
:10594000ABCCF2B7F889B2D8EBD1BBBAF989A7CA08
:10595000FA89FB89B7CDFC89FD89C4D2E4BFD0BCEC
:10596000E1B6FE89C5DE408A418A428A438AC6DEA4
:10597000BCDB448AD9D1458A468AE6C6CEC4EEB796
:10598000478ADCB7488A498AFCBFE0D74A8AF5C60D
:105990004B8A4C8ABCB1C8DEB1BDD7CCCADE4D8AB9
:1059A000C9DE4E8A4F8A508A518A528AECB5538A90
:1059B000DDC9548A558AC2B0568A578A588A598A8C
:1059C0005A8A5B8A5C8A5D8A5E8A5F8A608A618A9B
:1059D000628AAEC5ABC5638ACCC4648AE9BCFDCB20
:1059E000658A668A678AC3BA688A698A6A8AF9E5B3
:1059F000E7C8FAE5FDCD6B8AB1D7BEB8E8C26C8ABC
:105A0000D1C86D8A6E8AFBE56F8A708A718A728A44
:105A1000CAB6CBBC738A748AFDD1A1E6758AEEC37F
:105A2000768A778A788A798AA4E67A8A7B8A7C8AD7
:105A30007D8AFEE5A5E6D7CD7E8A808AC1B7FCE5E2
:105A4000FDE5A3E6818A828ADDC4A8E6838A848A8A
:105A5000A7E6858A868A878A888A898A8A8AC3C3CA
:105A60008B8ADEC68C8A8D8AAAE68E8A8F8A908A75
:105A7000918A928A938A948AB7C4958A968A978AD9
:105A8000A2E6BCCA988A998A9A8A9B8AE3BDC3B95E
:105A9000A6E6D5D0AFCE9C8A9D8AA9E6B0E69E8ABE
:105AA000A6D29F8AAABDADE6A08AA18AA28AA38AAD
:105AB000A48AAFE6A58AD1C0A68AA78ACCD2A88A32
:105AC000A98AAA8AA7BCAB8AAC8AAD8AAE8AAF8AF9
:105AD000B08AB18AB28AB38AB48AB58AB68AB1E684
